{
  "_format": "hh-sol-artifact-1",
  "contractName": "AmbireAccountFactory",
  "sourceName": "contracts/AmbireAccountFactory.sol",
  "abi": [
    {
      "inputs": [
        {
          "internalType": "address",
          "name": "allowed",
          "type": "address"
        }
      ],
      "stateMutability": "nonpayable",
      "type": "constructor"
    },
    {
      "anonymous": false,
      "inputs": [
        {
          "indexed": false,
          "internalType": "address",
          "name": "addr",
          "type": "address"
        },
        {
          "indexed": false,
          "internalType": "uint256",
          "name": "salt",
          "type": "uint256"
        }
      ],
      "name": "LogDeployed",
      "type": "event"
    },
    {
      "inputs": [],
      "name": "allowedToDrain",
      "outputs": [
        {
          "internalType": "address",
          "name": "",
          "type": "address"
        }
      ],
      "stateMutability": "view",
      "type": "function"
    },
    {
      "inputs": [
        {
          "internalType": "address",
          "name": "to",
          "type": "address"
        },
        {
          "internalType": "uint256",
          "name": "value",
          "type": "uint256"
        },
        {
          "internalType": "bytes",
          "name": "data",
          "type": "bytes"
        },
        {
          "internalType": "uint256",
          "name": "gas",
          "type": "uint256"
        }
      ],
      "name": "call",
      "outputs": [],
      "stateMutability": "nonpayable",
      "type": "function"
    },
    {
      "inputs": [
        {
          "internalType": "bytes",
          "name": "code",
          "type": "bytes"
        },
        {
          "internalType": "uint256",
          "name": "salt",
          "type": "uint256"
        }
      ],
      "name": "deploy",
      "outputs": [],
      "stateMutability": "nonpayable",
      "type": "function"
    },
    {
      "inputs": [
        {
          "internalType": "bytes",
          "name": "code",
          "type": "bytes"
        },
        {
          "internalType": "uint256",
          "name": "salt",
          "type": "uint256"
        },
        {
          "components": [
            {
              "internalType": "address",
              "name": "to",
              "type": "address"
            },
            {
              "internalType": "uint256",
              "name": "value",
              "type": "uint256"
            },
            {
              "internalType": "bytes",
              "name": "data",
              "type": "bytes"
            }
          ],
          "internalType": "struct AmbireAccount.Transaction[]",
          "name": "txns",
          "type": "tuple[]"
        },
        {
          "internalType": "bytes",
          "name": "signature",
          "type": "bytes"
        }
      ],
      "name": "deployAndExecute",
      "outputs": [],
      "stateMutability": "nonpayable",
      "type": "function"
    }
  ],
  "bytecode": "0x60a03461007157601f61082b38819003918201601f19168301916001600160401b038311848410176100765780849260209460405283398101031261007157516001600160a01b03811681036100715760805260405161079e908161008d823960805181818161011401526101ea0152f35b600080fd5b634e487b7160e01b600052604160045260246000fdfe6080604052600436101561001257600080fd5b6000803560e01c9081631ce6236f146100fa5781631e86da2a14610055575080634e4a0c821461005057639c4ae2d01461004b57600080fd5b6102ad565b6101a5565b346100f75760803660031901126100f75767ffffffffffffffff6004358181116100f35761008790369060040161014d565b604492919235908282116100ef57366023830112156100ef578160040135908382116100eb573660248360051b850101116100eb576064359384116100eb576100e8946100da602495369060040161014d565b9590940191602435916103fe565b80f35b8580fd5b8480fd5b8280fd5b80fd5b346100f757806003193601126100f7576001600160a01b037f00000000000000000000000000000000000000000000000000000000000000001660805260206080f35b600091031261014857565b600080fd5b9181601f840112156101485782359167ffffffffffffffff8311610148576020838186019501011161014857565b600435906001600160a01b038216820361014857565b35906001600160a01b038216820361014857565b34610148576080366003190112610148576101be61017b565b60443567ffffffffffffffff8111610148576101de90369060040161014d565b91906001600160a01b037f0000000000000000000000000000000000000000000000000000000000000000163303610269576100e89183604051948593843782019060009485938385809552039160243590606435f13d15610261573d906102458261037e565b91610253604051938461035c565b82523d84602084013e610567565b606090610567565b606460405162461bcd60e51b815260206004820152600f60248201527f4f4e4c595f415554484f52495a454400000000000000000000000000000000006044820152fd5b346101485760403660031901126101485760043567ffffffffffffffff8111610148576102f16102e46102f692369060040161014d565b919060243592369161039a565b610664565b005b7f4e487b7100000000000000000000000000000000000000000000000000000000600052604160045260246000fd5b67ffffffffffffffff811161033b57604052565b6102f8565b6080810190811067ffffffffffffffff82111761033b57604052565b90601f8019910116810190811067ffffffffffffffff82111761033b57604052565b67ffffffffffffffff811161033b57601f01601f191660200190565b9291926103a68261037e565b916103b4604051938461035c565b829481845281830111610148578281602093846000960137010152565b908060209392818452848401376000828201840152601f01601f1916010190565b6040513d6000823e3d90fd5b959293949161041c906102f16001600160a01b03988994369161039a565b1693843b15610148579492919060409283519687957f6171d1c900000000000000000000000000000000000000000000000000000000875281604488018760048a015252606487019260648360051b8901019681946000925b8584106104cb5750505050505050836104a060009694829488946003198584030160248601526103d1565b03925af180156104c6576104b15750565b806104be6104c492610327565b8061013d565b565b6103f2565b919395995091939596976063198c82030183528935605e1983360301811215610148578201866104fa82610191565b168252602090818101358284015285810135601e1982360301811215610148570181813591019267ffffffffffffffff821161014857813603841361014857600193839261055192606090818b82015201916103d1565b9b019301940191949290938b9998979694610475565b1561056f5750565b6040519062461bcd60e51b82528160208060048301528251908160248401526000935b8285106105b5575050604492506000838284010152601f80199101168101030190fd5b8481018201518686016044015293810193859350610592565b156105d557565b606460405162461bcd60e51b815260206004820152601060248201527f4641494c45445f4445504c4f59494e47000000000000000000000000000000006044820152fd5b1561062057565b606460405162461bcd60e51b815260206004820152600c60248201527f4641494c45445f4d4154434800000000000000000000000000000000000000006044820152fd5b908151906106eb6106df6020850193842060405160208101917fff0000000000000000000000000000000000000000000000000000000000000083526bffffffffffffffffffffffff193060601b1660218301528560358301526055820152605581526106d081610340565b5190206001600160a01b031690565b6001600160a01b031690565b92833b156106fa575b50505090565b7fecef66cbb4d4c8dd18157def75d46290ddc298395ea46f7ff64321c1a912cbad92829151906000f56107456001600160a01b038083169061073d8215156105ce565b861614610619565b604080516001600160a01b039290921682526020820192909252a13880806106f456fea26469706673582212200500d7745ccf67273f48b26043eb23404c43b5a54379192174665ed9ca485a8864736f6c63430008130033",
  "linkReferences": {},
  "deployedLinkReferences": {}
}