{
    "_format": "hh-sol-artifact-1",
    "contractName": "ERC4337Account",
    "sourceName": "contracts/ERC4337Account.sol",
    "abi": [
        {
            "inputs": [
                {
                    "internalType": "address",
                    "name": "_entryPoint",
                    "type": "address"
                },
                {
                    "internalType": "address[]",
                    "name": "addrs",
                    "type": "address[]"
                }
            ],
            "stateMutability": "nonpayable",
            "type": "constructor"
        },
        {
            "anonymous": false,
            "inputs": [
                {
                    "indexed": true,
                    "internalType": "address",
                    "name": "to",
                    "type": "address"
                },
                {
                    "indexed": false,
                    "internalType": "uint256",
                    "name": "value",
                    "type": "uint256"
                },
                {
                    "indexed": false,
                    "internalType": "bytes",
                    "name": "data",
                    "type": "bytes"
                },
                {
                    "indexed": false,
                    "internalType": "bytes",
                    "name": "returnData",
                    "type": "bytes"
                }
            ],
            "name": "LogErr",
            "type": "event"
        },
        {
            "anonymous": false,
            "inputs": [
                {
                    "indexed": true,
                    "internalType": "address",
                    "name": "addr",
                    "type": "address"
                },
                {
                    "indexed": false,
                    "internalType": "bytes32",
                    "name": "priv",
                    "type": "bytes32"
                }
            ],
            "name": "LogPrivilegeChanged",
            "type": "event"
        },
        {
            "anonymous": false,
            "inputs": [
                {
                    "indexed": true,
                    "internalType": "bytes32",
                    "name": "txnHash",
                    "type": "bytes32"
                },
                {
                    "indexed": true,
                    "internalType": "bytes32",
                    "name": "recoveryHash",
                    "type": "bytes32"
                },
                {
                    "indexed": true,
                    "internalType": "address",
                    "name": "recoveryKey",
                    "type": "address"
                },
                {
                    "indexed": false,
                    "internalType": "uint256",
                    "name": "time",
                    "type": "uint256"
                }
            ],
            "name": "LogRecoveryCancelled",
            "type": "event"
        },
        {
            "anonymous": false,
            "inputs": [
                {
                    "indexed": true,
                    "internalType": "bytes32",
                    "name": "txnHash",
                    "type": "bytes32"
                },
                {
                    "indexed": true,
                    "internalType": "bytes32",
                    "name": "recoveryHash",
                    "type": "bytes32"
                },
                {
                    "indexed": false,
                    "internalType": "uint256",
                    "name": "time",
                    "type": "uint256"
                }
            ],
            "name": "LogRecoveryFinalized",
            "type": "event"
        },
        {
            "anonymous": false,
            "inputs": [
                {
                    "indexed": true,
                    "internalType": "bytes32",
                    "name": "txnHash",
                    "type": "bytes32"
                },
                {
                    "indexed": true,
                    "internalType": "bytes32",
                    "name": "recoveryHash",
                    "type": "bytes32"
                },
                {
                    "indexed": true,
                    "internalType": "address",
                    "name": "recoveryKey",
                    "type": "address"
                },
                {
                    "indexed": false,
                    "internalType": "uint256",
                    "name": "nonce",
                    "type": "uint256"
                },
                {
                    "indexed": false,
                    "internalType": "uint256",
                    "name": "time",
                    "type": "uint256"
                },
                {
                    "components": [
                        {
                            "internalType": "address",
                            "name": "to",
                            "type": "address"
                        },
                        {
                            "internalType": "uint256",
                            "name": "value",
                            "type": "uint256"
                        },
                        {
                            "internalType": "bytes",
                            "name": "data",
                            "type": "bytes"
                        }
                    ],
                    "indexed": false,
                    "internalType": "struct AmbireAccount.Transaction[]",
                    "name": "txns",
                    "type": "tuple[]"
                }
            ],
            "name": "LogRecoveryScheduled",
            "type": "event"
        },
        {
            "stateMutability": "payable",
            "type": "fallback"
        },
        {
            "inputs": [],
            "name": "entryPoint",
            "outputs": [
                {
                    "internalType": "address",
                    "name": "",
                    "type": "address"
                }
            ],
            "stateMutability": "view",
            "type": "function"
        },
        {
            "inputs": [
                {
                    "components": [
                        {
                            "internalType": "address",
                            "name": "to",
                            "type": "address"
                        },
                        {
                            "internalType": "uint256",
                            "name": "value",
                            "type": "uint256"
                        },
                        {
                            "internalType": "bytes",
                            "name": "data",
                            "type": "bytes"
                        }
                    ],
                    "internalType": "struct AmbireAccount.Transaction[]",
                    "name": "txns",
                    "type": "tuple[]"
                },
                {
                    "internalType": "bytes",
                    "name": "signature",
                    "type": "bytes"
                }
            ],
            "name": "execute",
            "outputs": [],
            "stateMutability": "payable",
            "type": "function"
        },
        {
            "inputs": [
                {
                    "components": [
                        {
                            "internalType": "address",
                            "name": "to",
                            "type": "address"
                        },
                        {
                            "internalType": "uint256",
                            "name": "value",
                            "type": "uint256"
                        },
                        {
                            "internalType": "bytes",
                            "name": "data",
                            "type": "bytes"
                        }
                    ],
                    "internalType": "struct AmbireAccount.Transaction[]",
                    "name": "txns",
                    "type": "tuple[]"
                }
            ],
            "name": "executeBySelf",
            "outputs": [],
            "stateMutability": "payable",
            "type": "function"
        },
        {
            "inputs": [
                {
                    "components": [
                        {
                            "internalType": "address",
                            "name": "to",
                            "type": "address"
                        },
                        {
                            "internalType": "uint256",
                            "name": "value",
                            "type": "uint256"
                        },
                        {
                            "internalType": "bytes",
                            "name": "data",
                            "type": "bytes"
                        }
                    ],
                    "internalType": "struct AmbireAccount.Transaction[]",
                    "name": "txns",
                    "type": "tuple[]"
                }
            ],
            "name": "executeBySender",
            "outputs": [],
            "stateMutability": "payable",
            "type": "function"
        },
        {
            "inputs": [
                {
                    "components": [
                        {
                            "components": [
                                {
                                    "internalType": "address",
                                    "name": "to",
                                    "type": "address"
                                },
                                {
                                    "internalType": "uint256",
                                    "name": "value",
                                    "type": "uint256"
                                },
                                {
                                    "internalType": "bytes",
                                    "name": "data",
                                    "type": "bytes"
                                }
                            ],
                            "internalType": "struct AmbireAccount.Transaction[]",
                            "name": "txns",
                            "type": "tuple[]"
                        },
                        {
                            "internalType": "bytes",
                            "name": "signature",
                            "type": "bytes"
                        }
                    ],
                    "internalType": "struct AmbireAccount.ExecuteArgs[]",
                    "name": "toExec",
                    "type": "tuple[]"
                }
            ],
            "name": "executeMultiple",
            "outputs": [],
            "stateMutability": "payable",
            "type": "function"
        },
        {
            "inputs": [
                {
                    "internalType": "bytes32",
                    "name": "hash",
                    "type": "bytes32"
                },
                {
                    "internalType": "bytes",
                    "name": "signature",
                    "type": "bytes"
                }
            ],
            "name": "isValidSignature",
            "outputs": [
                {
                    "internalType": "bytes4",
                    "name": "",
                    "type": "bytes4"
                }
            ],
            "stateMutability": "view",
            "type": "function"
        },
        {
            "inputs": [],
            "name": "nonce",
            "outputs": [
                {
                    "internalType": "uint256",
                    "name": "",
                    "type": "uint256"
                }
            ],
            "stateMutability": "view",
            "type": "function"
        },
        {
            "inputs": [
                {
                    "internalType": "address",
                    "name": "",
                    "type": "address"
                },
                {
                    "internalType": "address",
                    "name": "",
                    "type": "address"
                },
                {
                    "internalType": "uint256[]",
                    "name": "",
                    "type": "uint256[]"
                },
                {
                    "internalType": "uint256[]",
                    "name": "",
                    "type": "uint256[]"
                },
                {
                    "internalType": "bytes",
                    "name": "",
                    "type": "bytes"
                }
            ],
            "name": "onERC1155BatchReceived",
            "outputs": [
                {
                    "internalType": "bytes4",
                    "name": "",
                    "type": "bytes4"
                }
            ],
            "stateMutability": "pure",
            "type": "function"
        },
        {
            "inputs": [
                {
                    "internalType": "address",
                    "name": "",
                    "type": "address"
                },
                {
                    "internalType": "address",
                    "name": "",
                    "type": "address"
                },
                {
                    "internalType": "uint256",
                    "name": "",
                    "type": "uint256"
                },
                {
                    "internalType": "uint256",
                    "name": "",
                    "type": "uint256"
                },
                {
                    "internalType": "bytes",
                    "name": "",
                    "type": "bytes"
                }
            ],
            "name": "onERC1155Received",
            "outputs": [
                {
                    "internalType": "bytes4",
                    "name": "",
                    "type": "bytes4"
                }
            ],
            "stateMutability": "pure",
            "type": "function"
        },
        {
            "inputs": [
                {
                    "internalType": "address",
                    "name": "",
                    "type": "address"
                },
                {
                    "internalType": "address",
                    "name": "",
                    "type": "address"
                },
                {
                    "internalType": "uint256",
                    "name": "",
                    "type": "uint256"
                },
                {
                    "internalType": "bytes",
                    "name": "",
                    "type": "bytes"
                }
            ],
            "name": "onERC721Received",
            "outputs": [
                {
                    "internalType": "bytes4",
                    "name": "",
                    "type": "bytes4"
                }
            ],
            "stateMutability": "pure",
            "type": "function"
        },
        {
            "inputs": [
                {
                    "internalType": "address",
                    "name": "",
                    "type": "address"
                }
            ],
            "name": "privileges",
            "outputs": [
                {
                    "internalType": "bytes32",
                    "name": "",
                    "type": "bytes32"
                }
            ],
            "stateMutability": "view",
            "type": "function"
        },
        {
            "inputs": [
                {
                    "internalType": "bytes32",
                    "name": "",
                    "type": "bytes32"
                }
            ],
            "name": "scheduledRecoveries",
            "outputs": [
                {
                    "internalType": "uint256",
                    "name": "",
                    "type": "uint256"
                }
            ],
            "stateMutability": "view",
            "type": "function"
        },
        {
            "inputs": [
                {
                    "internalType": "address",
                    "name": "addr",
                    "type": "address"
                },
                {
                    "internalType": "bytes32",
                    "name": "priv",
                    "type": "bytes32"
                }
            ],
            "name": "setAddrPrivilege",
            "outputs": [],
            "stateMutability": "payable",
            "type": "function"
        },
        {
            "inputs": [
                {
                    "internalType": "bytes4",
                    "name": "interfaceID",
                    "type": "bytes4"
                }
            ],
            "name": "supportsInterface",
            "outputs": [
                {
                    "internalType": "bool",
                    "name": "",
                    "type": "bool"
                }
            ],
            "stateMutability": "pure",
            "type": "function"
        },
        {
            "inputs": [
                {
                    "internalType": "address",
                    "name": "to",
                    "type": "address"
                },
                {
                    "internalType": "uint256",
                    "name": "value",
                    "type": "uint256"
                },
                {
                    "internalType": "bytes",
                    "name": "data",
                    "type": "bytes"
                }
            ],
            "name": "tryCatch",
            "outputs": [],
            "stateMutability": "payable",
            "type": "function"
        },
        {
            "inputs": [
                {
                    "internalType": "address",
                    "name": "to",
                    "type": "address"
                },
                {
                    "internalType": "uint256",
                    "name": "value",
                    "type": "uint256"
                },
                {
                    "internalType": "bytes",
                    "name": "data",
                    "type": "bytes"
                },
                {
                    "internalType": "uint256",
                    "name": "gasLimit",
                    "type": "uint256"
                }
            ],
            "name": "tryCatchLimit",
            "outputs": [],
            "stateMutability": "payable",
            "type": "function"
        },
        {
            "inputs": [
                {
                    "components": [
                        {
                            "internalType": "address",
                            "name": "sender",
                            "type": "address"
                        },
                        {
                            "internalType": "uint256",
                            "name": "nonce",
                            "type": "uint256"
                        },
                        {
                            "internalType": "bytes",
                            "name": "initCode",
                            "type": "bytes"
                        },
                        {
                            "internalType": "bytes",
                            "name": "callData",
                            "type": "bytes"
                        },
                        {
                            "internalType": "uint256",
                            "name": "callGasLimit",
                            "type": "uint256"
                        },
                        {
                            "internalType": "uint256",
                            "name": "verificationGasLimit",
                            "type": "uint256"
                        },
                        {
                            "internalType": "uint256",
                            "name": "preVerificationGas",
                            "type": "uint256"
                        },
                        {
                            "internalType": "uint256",
                            "name": "maxFeePerGas",
                            "type": "uint256"
                        },
                        {
                            "internalType": "uint256",
                            "name": "maxPriorityFeePerGas",
                            "type": "uint256"
                        },
                        {
                            "internalType": "bytes",
                            "name": "paymasterAndData",
                            "type": "bytes"
                        },
                        {
                            "internalType": "bytes",
                            "name": "signature",
                            "type": "bytes"
                        }
                    ],
                    "internalType": "struct UserOperation",
                    "name": "userOp",
                    "type": "tuple"
                },
                {
                    "internalType": "bytes32",
                    "name": "userOpHash",
                    "type": "bytes32"
                },
                {
                    "internalType": "uint256",
                    "name": "missingAccountFunds",
                    "type": "uint256"
                }
            ],
            "name": "validateUserOp",
            "outputs": [
                {
                    "internalType": "uint256",
                    "name": "validationData",
                    "type": "uint256"
                }
            ],
            "stateMutability": "nonpayable",
            "type": "function"
        },
        {
            "stateMutability": "payable",
            "type": "receive"
        }
    ],
    "bytecode": "0x604060a08152346200017c576200224990813803806200001f8162000197565b938439820181838203126200017c576200003983620001bd565b6020848101516001600160401b03959193918682116200017c570181601f820112156200017c57805195861162000181578560051b9084806200007e81850162000197565b8099815201928201019283116200017c5784809101915b8383106200016157505050508060805260018060a01b0390816000911681528083526001928385832055855192825b848110620000eb57865161204b9081620001fe823960805181818161047a01526106f30152f35b81620000f8828a620001d2565b5116845283835285878520558162000111828a620001d2565b51167f08ac40e0195c5998554e98853c23964a13a24309e127b2d016e8ec4adecf5e83848951898152a260001981146200014d578501620000c4565b634e487b7160e01b84526011600452602484fd5b81906200016e84620001bd565b815201910190849062000095565b600080fd5b634e487b7160e01b600052604160045260246000fd5b6040519190601f01601f191682016001600160401b038111838210176200018157604052565b51906001600160a01b03821682036200017c57565b8051821015620001e75760209160051b010190565b634e487b7160e01b600052603260045260246000fdfe6080604052600436101561001e575b361561001c5761001c6108da565b005b60003560e01c806301ffc9a71461012e5780630d5828d414610129578063150b7a0214610124578063160aa0ef1461011f5780631626ba7e1461011a5780633628d042146101155780633a871cdd146101105780636171d1c91461010b5780636769de8214610106578063a2ea676614610101578063abc5345e146100fc578063affed0e0146100f7578063b0d691fe146100f2578063bc197c81146100ed578063bf1cb383146100e8578063c066a5b1146100e35763f23a6e610361000e57610867565b610829565b6107c0565b610717565b6106d3565b6106b5565b610672565b6105f2565b6105cc565b61054c565b610422565b61036d565b61031c565b6102f0565b610296565b6101fc565b61014a565b6001600160e01b031981160361014557565b600080fd5b346101455760203660031901126101455760206001600160e01b031960043561017281610133565b167f01ffc9a70000000000000000000000000000000000000000000000000000000081149081156101da575b81156101b0575b506040519015158152f35b7f4e2312e000000000000000000000000000000000000000000000000000000000915014386101a5565b630a85bd0160e11b8114915061019e565b6001600160a01b0381160361014557565b604036600319011261014557600435610214816101eb565b7f08ac40e0195c5998554e98853c23964a13a24309e127b2d016e8ec4adecf5e8360206001600160a01b036024359361024e30331461091d565b1692836000526000825280604060002055604051908152a2005b9181601f840112156101455782359167ffffffffffffffff8311610145576020838186019501011161014557565b34610145576080366003190112610145576102b26004356101eb565b6102bd6024356101eb565b60643567ffffffffffffffff8111610145576102dd903690600401610268565b50506020604051630a85bd0160e11b8152f35b346101455760203660031901126101455760043560005260026020526020604060002054604051908152f35b346101455760403660031901126101455760243567ffffffffffffffff81116101455761035b6103526020923690600401610268565b906004356114a6565b6001600160e01b031960405191168152f35b608036600319011261014557600435610385816101eb565b6024359060443567ffffffffffffffff8111610145576103a9903690600401610268565b90916103b630331461091d565b600080604051848682378085810183815203908785606435f1926103d86109f9565b93156103e057005b7f80c2637928bd94d0e1a90eaac1efc1553be6391d962fe5c82a01e90122c84ccc936001600160a01b039361041d92604051958695169785610a92565b0390a2005b3461014557600319606036820112610145576004359067ffffffffffffffff821161014557610160908236030112610145576104af6104f5916104d76104be604435926104b660009586926104a16001600160a01b037f00000000000000000000000000000000000000000000000000000000000000001633146114ef565b610144810190600401611415565b3691610c21565b6024356119c5565b6001600160a01b03166000526000602052604060002090565b5415610512575b806104f9575b506040519081529081906020820190565b0390f35b600080808093335af15061050b6109f9565b50386104e4565b600191506104de565b9181601f840112156101455782359167ffffffffffffffff8311610145576020808501948460051b01011161014557565b60403660031901126101455767ffffffffffffffff6004358181116101455761057990369060040161051b565b906024359283116101455761059561001c933690600401610268565b929091611030565b6020600319820112610145576004359067ffffffffffffffff8211610145576105c89160040161051b565b9091565b61001c6105ed6105db3661059d565b6105e630331461091d565b3691610f24565b611448565b6105fb3661059d565b60005b81810361060757005b6106128183856113f3565b803590601e198136030182121561014557019081359167ffffffffffffffff8311610145576020809101928060051b360384136101455761066d936105956106689361065f86898b6113f3565b90810190611415565b610e7f565b6105fe565b6105ed61069c6106813661059d565b9290600093338552846020526105e660408620541515610c58565b338152806020526106b260408220541515610fe5565b80f35b34610145576000366003190112610145576020600154604051908152f35b346101455760003660031901126101455760206040516001600160a01b037f0000000000000000000000000000000000000000000000000000000000000000168152f35b346101455760a0366003190112610145576107336004356101eb565b61073e6024356101eb565b67ffffffffffffffff6044358181116101455761075f90369060040161051b565b50506064358181116101455761077990369060040161051b565b505060843590811161014557610793903690600401610268565b50506040517fbc197c81000000000000000000000000000000000000000000000000000000008152602090f35b6060366003190112610145576004356107d8816101eb565b6024359060443567ffffffffffffffff8111610145576107fc903690600401610268565b909161080930331461091d565b6000805a604051858782378785828881018681520393f1926103d86109f9565b34610145576020366003190112610145576001600160a01b0360043561084e816101eb565b1660005260006020526020604060002054604051908152f35b346101455760a0366003190112610145576108836004356101eb565b61088e6024356101eb565b60843567ffffffffffffffff8111610145576108ae903690600401610268565b505060206040517ff23a6e61000000000000000000000000000000000000000000000000000000008152f35b6000906169698252816020526001600160a01b036040832054169081156109185750818091368280378136915af4903d918282803e1561091657f35bfd5b915050565b1561092457565b606460405162461bcd60e51b815260206004820152601660248201527f4f4e4c595f4944454e544954595f43414e5f43414c4c000000000000000000006044820152fd5b634e487b7160e01b600052604160045260246000fd5b6040810190811067ffffffffffffffff82111761099a57604052565b610968565b6060810190811067ffffffffffffffff82111761099a57604052565b90601f8019910116810190811067ffffffffffffffff82111761099a57604052565b67ffffffffffffffff811161099a57601f01601f191660200190565b3d15610a24573d90610a0a826109dd565b91610a1860405193846109bb565b82523d6000602084013e565b606090565b908060209392818452848401376000828201840152601f01601f1916010190565b60005b838110610a5d5750506000910152565b8181015183820152602001610a4d565b90602091610a8681518092818552858086019101610a4a565b601f01601f1916010190565b9291610abe9492610ab0928552606060208601526060850191610a29565b916040818403910152610a6d565b90565b90808352602080930192838260051b850194846000925b858410610ae9575050505050505090565b9091929394959681810384528735605e19843603018112156101455783016001600160a01b038135610b1a816101eb565b168252868101358783015260409081810135601e198236030181121561014557019087823592019267ffffffffffffffff83116101455782360384136101455760019389938493610b7393606080928201520191610a29565b990194019401929594939190610ad8565b90926080926001600160a01b03610abe9795168352602083015260408201528160608201520191610ac1565b634e487b7160e01b600052601160045260246000fd5b600019810191908211610bd557565b610bb0565b9070014551231950b75fc4402da1732fc9bebe19918203918211610bd557565b634e487b7160e01b600052603260045260246000fd5b90821015610c1c570190565b610bfa565b929192610c2d826109dd565b91610c3b60405193846109bb565b829481845281830111610145578281602093846000960137010152565b15610c5f57565b606460405162461bcd60e51b815260206004820152601660248201527f494e53554646494349454e545f50524956494c454745000000000000000000006044820152fd5b67ffffffffffffffff811161099a5760051b60200190565b81601f82011215610145578051610cd1816109dd565b92610cdf60405194856109bb565b8184526020828401011161014557610abe9160208085019101610a4a565b5190610d08826101eb565b565b909160608284031261014557815167ffffffffffffffff908181116101455783019360408582031261014557604051610d428161097e565b855183811161014557860182601f8201121561014557805196610d6488610ca3565b610d7160405191826109bb565b88815260209860051b83018901898201868211610145578a80809601915b838310610dc5575050505083520151868201529484015191821161014557610dbe604091610abe938601610cbb565b9301610cfd565b81908351610dd2816101eb565b8152019101908590610d8f565b6020808252825160408383015280516060840181905260808401949183019060005b818110610e175750505090604091015191015290565b82516001600160a01b031687529584019591840191600101610e01565b15610e3b57565b606460405162461bcd60e51b815260206004820152601760248201527f5245434f564552595f4e4f545f415554484f52495a45440000000000000000006044820152fd5b6000198114610bd55760010190565b8051821015610c1c5760209160051b010190565b9060018201809211610bd557565b91908201809211610bd557565b610abe9492606092825260208201528160408201520191610ac1565b15610ee057565b606460405162461bcd60e51b815260206004820152601260248201527f5245434f564552595f4e4f545f524541445900000000000000000000000000006044820152fd5b929190610f3081610ca3565b91604091610f40835194856109bb565b839581855260208095019160051b8101938385116101455781925b858410610f6b5750505050505050565b67ffffffffffffffff9084358281116101455784019160608388031261014557835192610f978461099f565b8035610fa2816101eb565b8452898101358a8501528481013591821161014557019086601f83011215610145578892610fd68884868096359101610c21565b85820152815201930192610f5b565b15610fec57565b606460405162461bcd60e51b815260206004820152601860248201527f50524956494c4547455f4e4f545f444f574e47524144454400000000000000006044820152fd5b9192600190815491604091825190602080830183611052898b8a463087610b84565b0393611066601f19958681018352826109bb565b5190209860ff6110b16110ab61108561107e87610bc6565b8786610c10565b357fff000000000000000000000000000000000000000000000000000000000000001690565b60f81c90565b169260ff841480156113e9575b1561138757916110f46110e56110e060fe9d9896946111489a98963691610c21565b61155b565b50828082518301019101610d0a565b939061114f6001600160a01b038096169e8f9314928951868101906111298161111d8985610ddf565b038b81018352826109bb565b5190209b8c916001600160a01b03166000526000602052604060002090565b5414610e34565b611163896000526002602052604060002090565b54958615158061137f575b156111f8575050505050506104be956105ed956111f099957fdef2c5a081ab1dd3f896874500de5f4045efd102a452bce3af5123459f461f1b610d089c9a966111d06111cb6105e6986111c56111cb994211610ed9565b54610e7f565b600155565b6000838152600260205260408120555142815280602081010390a3610ea2565b541515610fe5565b61124c93959e50879d999b989a9c97929496508b9085600014611373578b518881019283526363616e6360208401529061123e9082604085015b039081018352826109bb565b51902090829e9392916119c5565b6000918291169b5b611314575b5061126e9192939495969798999a9b50610e34565b156112c05750505050507ff38fc5203ec5ac432b66df0ed37402f7b1afb377ddce98e08c2bf696c71874059060006112b0846000526002602052604060002090565b555142815280602081015b0390a4565b946112f36112bb93927f58d616db4bbaccaaad10b948d290b9df7973a7b566f83a68e2e0e7f4e5c61ccd97015142610eb0565b611307886000526002602052604060002090565b5551938493429085610ebd565b8351805182101561136d5761134a61133e6113318f938590610e8e565b516001600160a01b031690565b6001600160a01b031690565b1461135f576113598d91610e7f565b90611254565b50999a8b9a5061126e611259565b50611259565b5090829e9392916119c5565b50821561116e565b6105ed96506104be979894506105e693506111cb925094610d089a6113b56113bb936111f09c983691610c21565b906119c5565b966113e46113dc896001600160a01b03166000526000602052604060002090565b541515610c58565b610ea2565b5060fe84146110be565b9190811015610c1c5760051b81013590603e1981360301821215610145570190565b903590601e1981360301821215610145570180359067ffffffffffffffff82116101455760200191813603831361014557565b8051600091825b82811061145c5750505050565b6114668183610e8e565b5184806001600160a01b03835116602090818501516040809601519283519301915af11561149d575061149890610e7f565b61144f565b513d908186823efd5b6000906113b56114c0936001600160a01b03953691610c21565b16600052600060205260406000205415156000146114e357630b135d3f60e11b90565b6001600160e01b031990565b156114f657565b606460405162461bcd60e51b815260206004820152601c60248201527f6163636f756e743a206e6f742066726f6d20656e747279706f696e74000000006044820152fd5b805160401015610c1c5760600190565b908151811015610c1c570160200190565b906000199161156d838251018261154a565b5160f81c928151908101908111610bd55761158890826115e0565b9190565b60208151111561159c5760209052565b606460405162461bcd60e51b815260206004820152601860248201527f42797465734c69623a206f6e6c7920736872696e6b696e6700000000000000006044820152fd5b818151111561159c5752565b156115f357565b606460405162461bcd60e51b815260206004820152600960248201527f53565f5349474c454e00000000000000000000000000000000000000000000006044820152fd5b6007111561164157565b634e487b7160e01b600052602160045260246000fd5b1561165e57565b606460405162461bcd60e51b815260206004820152600a60248201527f53565f5349474d4f4445000000000000000000000000000000000000000000006044820152fd5b156116a957565b606460405162461bcd60e51b815260206004820152600f60248201527f53565f53504f4f465f4f524947494e00000000000000000000000000000000006044820152fd5b156116f457565b606460405162461bcd60e51b815260206004820152600c60248201527f53565f53504f4f465f4c454e00000000000000000000000000000000000000006044820152fd5b6040513d6000823e3d90fd5b1561014557565b908160209103126101455751610abe816101eb565b1561176757565b606460405162461bcd60e51b815260206004820152600d60248201527f53565f4c454e5f57414c4c4554000000000000000000000000000000000000006044820152fd5b908160209103126101455751610abe81610133565b604090610abe939281528160208201520190610a6d565b156117de57565b606460405162461bcd60e51b815260206004820152601160248201527f53565f57414c4c45545f494e56414c49440000000000000000000000000000006044820152fd5b1561182957565b606460405162461bcd60e51b815260206004820152600b60248201527f53565f5a45524f5f5349470000000000000000000000000000000000000000006044820152fd5b90602090818382031261014557825167ffffffffffffffff93848211610145570181601f820112156101455780516118a481610ca3565b946118b260405196876109bb565b818652848087019260051b8401019380851161014557858401925b8584106118de575050505050505090565b83518381116101455787916118f8848480948a0101610cbb565b8152019301926118cd565b9190826080910312610145578151916020810151916060604083015192015160ff811681036101455790565b1561193657565b606460405162461bcd60e51b815260206004820152601160248201527f53565f5343484e4f52525f4641494c45440000000000000000000000000000006044820152fd5b1561198157565b606460405162461bcd60e51b815260206004820152600660248201527f53565f4c454e00000000000000000000000000000000000000000000000000006044820152fd5b9092916000916119d7855115156115ec565b60ff611a146110ab6119ee6000198951018961154a565b517fff000000000000000000000000000000000000000000000000000000000000001690565b1691611a2260068410611657565b611a2b83611637565b611a3483611637565b82158015611f83575b15611b3a5750908483949592611a59604260209695511461197a565b611a6282611f96565b916001611a7d6110ab6119ee611a7785611fea565b9461153a565b94611a8781611637565b14611ae0575b611ab89192604051948594859094939260ff6060936080840197845216602083015260408201520152565b838052039060015afa15611adb5751610abe6001600160a01b0382161515611822565b611738565b611ab891604051611b3081611b228a82019485603c917f19457468657265756d205369676e6564204d6573736167653a0a3332000000008252601c8201520190565b03601f1981018352826109bb565b5190209150611a8d565b909291611b4681611637565b60048103611ce5575050611be4816020611bb493611b8388611b75611b6f611bbd9a9b51610bc6565b826115e0565b838082518301019101611903565b969092829a8199899583611bad70014551231950b75fc4402da1732fc9bebe198096819409610bda565b9609610bda565b91841415611744565b88604051948594859094939260ff6060936080840197845216602083015260408201520152565b838052039060015afa15611adb57610abe9461133e948493611c79611c96945192611c196001600160a01b0385161515611822565b6040519687936020850195869290605594927fff00000000000000000000000000000000000000000000000000000000000000916bffffffffffffffffffffffff199060601b16855260f81b166014840152601583015260358201520190565b0393611c8d601f19958681018352826109bb565b5190201461192f565b611cd660405191826112326020820195866027917f5343484e4f525200000000000000000000000000000000000000000000000000825260078201520190565b5190206001600160a01b031690565b611cf181969496611637565b60058103611daf575050611d0e611d088351610bc6565b836115e0565b611d2260209283808251830101910161186d565b93819482955b81518714611d9457611d4584611d3e8985610e8e565b51856119c5565b61133e611d8e92611b22611cd6611d88946040519283918c83019586906028926bffffffffffffffffffffffff19809260601b16835260601b1660148201520190565b96610e7f565b95611d28565b94955050505050610abe6001600160a01b0382161515611822565b611dbd819693949596611637565b60028103611e82575050611e2291611dd86021855111611760565b60206001600160a01b038119865101611e04611dfd61133e61133e61133e858c611ffa565b91886115e0565b169460405180958192630b135d3f60e11b96878452600484016117c0565b0381875afa8015611adb57611e49936001600160e01b03199291611e54575b5016146117d7565b610abe811515611822565b611e75915060203d8111611e7b575b611e6d81836109bb565b8101906117ab565b38611e41565b503d611e63565b6003919250611e9081611637565b149081611f7b575b50611ee25760405162461bcd60e51b815260206004820152600760248201527f53565f54595045000000000000000000000000000000000000000000000000006044820152606490fd5b600132148015611f70575b611ef6906116a2565b611f0360218351146116ed565b611f0c8261158c565b60208160405180611f3481906000606060808401938281528260208201528260408201520152565b838052039060015afa15611adb57610abe91611f61611b396001600160a01b0361133e9451161415611744565b6020808251830101910161174b565b5032611b3914611eed565b905038611e98565b50611f8d83611637565b60018314611a3d565b6020815110611fa6576020015190565b606460405162461bcd60e51b815260206004820152601060248201527f42797465734c69623a206c656e677468000000000000000000000000000000006044820152fd5b6040815110611fa6576040015190565b9060208101808211610bd557825110611fa65701602001519056fea26469706673582212206097aacdc07924bfc494c65c73cfe93c46d96d14d74248ecc10b767b1dd5806e64736f6c63430008130033",
    "linkReferences": {},
    "deployedLinkReferences": {}
}