{"contracts/AmbireAccount.sol":{"AmbireAccount":{"abi":[{"anonymous":false,"inputs":[{"indexed":true,"internalType":"address","name":"to","type":"address"},{"indexed":false,"internalType":"uint256","name":"value","type":"uint256"},{"indexed":false,"internalType":"bytes","name":"data","type":"bytes"},{"indexed":false,"internalType":"bytes","name":"returnData","type":"bytes"}],"name":"LogErr","type":"event"},{"anonymous":false,"inputs":[{"indexed":true,"internalType":"address","name":"addr","type":"address"},{"indexed":false,"internalType":"bytes32","name":"priv","type":"bytes32"}],"name":"LogPrivilegeChanged","type":"event"},{"anonymous":false,"inputs":[{"indexed":true,"internalType":"bytes32","name":"txnHash","type":"bytes32"},{"indexed":true,"internalType":"bytes32","name":"recoveryHash","type":"bytes32"},{"indexed":true,"internalType":"address","name":"recoveryKey","type":"address"},{"indexed":false,"internalType":"uint256","name":"time","type":"uint256"}],"name":"LogRecoveryCancelled","type":"event"},{"anonymous":false,"inputs":[{"indexed":true,"internalType":"bytes32","name":"txnHash","type":"bytes32"},{"indexed":true,"internalType":"bytes32","name":"recoveryHash","type":"bytes32"},{"indexed":false,"internalType":"uint256","name":"time","type":"uint256"}],"name":"LogRecoveryFinalized","type":"event"},{"anonymous":false,"inputs":[{"indexed":true,"internalType":"bytes32","name":"txnHash","type":"bytes32"},{"indexed":true,"internalType":"bytes32","name":"recoveryHash","type":"bytes32"},{"indexed":true,"internalType":"address","name":"recoveryKey","type":"address"},{"indexed":false,"internalType":"uint256","name":"nonce","type":"uint256"},{"indexed":false,"internalType":"uint256","name":"time","type":"uint256"},{"components":[{"internalType":"address","name":"to","type":"address"},{"internalType":"uint256","name":"value","type":"uint256"},{"internalType":"bytes","name":"data","type":"bytes"}],"indexed":false,"internalType":"struct AmbireAccount.Transaction[]","name":"txns","type":"tuple[]"}],"name":"LogRecoveryScheduled","type":"event"},{"stateMutability":"payable","type":"fallback"},{"inputs":[{"components":[{"internalType":"address","name":"to","type":"address"},{"internalType":"uint256","name":"value","type":"uint256"},{"internalType":"bytes","name":"data","type":"bytes"}],"internalType":"struct AmbireAccount.Transaction[]","name":"txns","type":"tuple[]"},{"internalType":"bytes","name":"signature","type":"bytes"}],"name":"execute","outputs":[],"stateMutability":"payable","type":"function"},{"inputs":[{"components":[{"internalType":"address","name":"to","type":"address"},{"internalType":"uint256","name":"value","type":"uint256"},{"internalType":"bytes","name":"data","type":"bytes"}],"internalType":"struct AmbireAccount.Transaction[]","name":"txns","type":"tuple[]"}],"name":"executeBySelf","outputs":[],"stateMutability":"payable","type":"function"},{"inputs":[{"components":[{"internalType":"address","name":"to","type":"address"},{"internalType":"uint256","name":"value","type":"uint256"},{"internalType":"bytes","name":"data","type":"bytes"}],"internalType":"struct AmbireAccount.Transaction[]","name":"txns","type":"tuple[]"}],"name":"executeBySender","outputs":[],"stateMutability":"payable","type":"function"},{"inputs":[{"components":[{"components":[{"internalType":"address","name":"to","type":"address"},{"internalType":"uint256","name":"value","type":"uint256"},{"internalType":"bytes","name":"data","type":"bytes"}],"internalType":"struct AmbireAccount.Transaction[]","name":"txns","type":"tuple[]"},{"internalType":"bytes","name":"signature","type":"bytes"}],"internalType":"struct AmbireAccount.ExecuteArgs[]","name":"toExec","type":"tuple[]"}],"name":"executeMultiple","outputs":[],"stateMutability":"payable","type":"function"},{"inputs":[{"internalType":"bytes32","name":"hash","type":"bytes32"},{"internalType":"bytes","name":"signature","type":"bytes"}],"name":"isValidSignature","outputs":[{"internalType":"bytes4","name":"","type":"bytes4"}],"stateMutability":"view","type":"function"},{"inputs":[],"name":"nonce","outputs":[{"internalType":"uint256","name":"","type":"uint256"}],"stateMutability":"view","type":"function"},{"inputs":[{"internalType":"address","name":"","type":"address"},{"internalType":"address","name":"","type":"address"},{"internalType":"uint256[]","name":"","type":"uint256[]"},{"internalType":"uint256[]","name":"","type":"uint256[]"},{"internalType":"bytes","name":"","type":"bytes"}],"name":"onERC1155BatchReceived","outputs":[{"internalType":"bytes4","name":"","type":"bytes4"}],"stateMutability":"pure","type":"function"},{"inputs":[{"internalType":"address","name":"","type":"address"},{"internalType":"address","name":"","type":"address"},{"internalType":"uint256","name":"","type":"uint256"},{"internalType":"uint256","name":"","type":"uint256"},{"internalType":"bytes","name":"","type":"bytes"}],"name":"onERC1155Received","outputs":[{"internalType":"bytes4","name":"","type":"bytes4"}],"stateMutability":"pure","type":"function"},{"inputs":[{"internalType":"address","name":"","type":"address"},{"internalType":"address","name":"","type":"address"},{"internalType":"uint256","name":"","type":"uint256"},{"internalType":"bytes","name":"","type":"bytes"}],"name":"onERC721Received","outputs":[{"internalType":"bytes4","name":"","type":"bytes4"}],"stateMutability":"pure","type":"function"},{"inputs":[{"internalType":"address","name":"","type":"address"}],"name":"privileges","outputs":[{"internalType":"bytes32","name":"","type":"bytes32"}],"stateMutability":"view","type":"function"},{"inputs":[{"internalType":"bytes32","name":"","type":"bytes32"}],"name":"scheduledRecoveries","outputs":[{"internalType":"uint256","name":"","type":"uint256"}],"stateMutability":"view","type":"function"},{"inputs":[{"internalType":"address","name":"addr","type":"address"},{"internalType":"bytes32","name":"priv","type":"bytes32"}],"name":"setAddrPrivilege","outputs":[],"stateMutability":"payable","type":"function"},{"inputs":[{"internalType":"bytes4","name":"interfaceID","type":"bytes4"}],"name":"supportsInterface","outputs":[{"internalType":"bool","name":"","type":"bool"}],"stateMutability":"pure","type":"function"},{"inputs":[{"internalType":"address","name":"to","type":"address"},{"internalType":"uint256","name":"value","type":"uint256"},{"internalType":"bytes","name":"data","type":"bytes"}],"name":"tryCatch","outputs":[],"stateMutability":"payable","type":"function"},{"inputs":[{"internalType":"address","name":"to","type":"address"},{"internalType":"uint256","name":"value","type":"uint256"},{"internalType":"bytes","name":"data","type":"bytes"},{"internalType":"uint256","name":"gasLimit","type":"uint256"}],"name":"tryCatchLimit","outputs":[],"stateMutability":"payable","type":"function"},{"stateMutability":"payable","type":"receive"}],"evm":{"bytecode":{"linkReferences":{},"object":"6080806040523461001657611eb1908161001c8239f35b600080fdfe6080604052600436101561001e575b361561001c5761001c61079f565b005b60003560e01c806301ffc9a71461010e5780630d5828d414610109578063150b7a0214610104578063160aa0ef146100ff5780631626ba7e146100fa5780633628d042146100f55780636171d1c9146100f05780636769de82146100eb578063a2ea6766146100e6578063abc5345e146100e1578063affed0e0146100dc578063bc197c81146100d7578063bf1cb383146100d2578063c066a5b1146100cd5763f23a6e610361000e5761072c565b6106ee565b610685565b6105dc565b6105be565b61057b565b6104d9565b6104b3565b610433565b61034d565b6102fc565b6102d0565b610276565b6101dc565b61012a565b6001600160e01b031981160361012557565b600080fd5b346101255760203660031901126101255760206001600160e01b031960043561015281610113565b167f01ffc9a70000000000000000000000000000000000000000000000000000000081149081156101ba575b8115610190575b506040519015158152f35b7f4e2312e00000000000000000000000000000000000000000000000000000000091501438610185565b630a85bd0160e11b8114915061017e565b6001600160a01b0381160361012557565b6040366003190112610125576004356101f4816101cb565b7f08ac40e0195c5998554e98853c23964a13a24309e127b2d016e8ec4adecf5e8360206001600160a01b036024359361022e3033146107e2565b1692836000526000825280604060002055604051908152a2005b9181601f840112156101255782359167ffffffffffffffff8311610125576020838186019501011161012557565b34610125576080366003190112610125576102926004356101cb565b61029d6024356101cb565b60643567ffffffffffffffff8111610125576102bd903690600401610248565b50506020604051630a85bd0160e11b8152f35b346101255760203660031901126101255760043560005260026020526020604060002054604051908152f35b346101255760403660031901126101255760243567ffffffffffffffff81116101255761033b6103326020923690600401610248565b90600435611357565b6001600160e01b031960405191168152f35b608036600319011261012557600435610365816101cb565b6024359060443567ffffffffffffffff811161012557610389903690600401610248565b90916103963033146107e2565b600080604051848682378085810183815203908785606435f1926103b86108be565b93156103c057005b7f80c2637928bd94d0e1a90eaac1efc1553be6391d962fe5c82a01e90122c84ccc936001600160a01b03936103fd92604051958695169785610957565b0390a2005b9181601f840112156101255782359167ffffffffffffffff8311610125576020808501948460051b01011161012557565b60403660031901126101255767ffffffffffffffff60043581811161012557610460903690600401610402565b906024359283116101255761047c61001c933690600401610248565b929091610efb565b6020600319820112610125576004359067ffffffffffffffff8211610125576104af91600401610402565b9091565b61001c6104d46104c236610484565b6104cd3033146107e2565b3691610def565b6112f9565b6104e236610484565b9060005b8281036104ef57005b6104fa8184846112d7565b908135601e1992838136030182121561012557019182359267ffffffffffffffff90818511610125576020809101928560051b36038413610125576105408589896112d7565b8281013591813603018212156101255701803592831161012557018136038113610125576105769461057193610efb565b610d4a565b6104e6565b6104d46105a561058a36610484565b9290600093338552846020526104cd60408620541515610b23565b338152806020526105bb60408220541515610eb0565b80f35b34610125576000366003190112610125576020600154604051908152f35b346101255760a0366003190112610125576105f86004356101cb565b6106036024356101cb565b67ffffffffffffffff60443581811161012557610624903690600401610402565b50506064358181116101255761063e903690600401610402565b505060843590811161012557610658903690600401610248565b50506040517fbc197c81000000000000000000000000000000000000000000000000000000008152602090f35b60603660031901126101255760043561069d816101cb565b6024359060443567ffffffffffffffff8111610125576106c1903690600401610248565b90916106ce3033146107e2565b6000805a604051858782378785828881018681520393f1926103b86108be565b34610125576020366003190112610125576001600160a01b03600435610713816101cb565b1660005260006020526020604060002054604051908152f35b346101255760a0366003190112610125576107486004356101cb565b6107536024356101cb565b60843567ffffffffffffffff811161012557610773903690600401610248565b505060206040517ff23a6e61000000000000000000000000000000000000000000000000000000008152f35b6000906169698252816020526001600160a01b036040832054169081156107dd5750818091368280378136915af4903d918282803e156107db57f35bfd5b915050565b156107e957565b606460405162461bcd60e51b815260206004820152601660248201527f4f4e4c595f4944454e544954595f43414e5f43414c4c000000000000000000006044820152fd5b634e487b7160e01b600052604160045260246000fd5b6040810190811067ffffffffffffffff82111761085f57604052565b61082d565b6060810190811067ffffffffffffffff82111761085f57604052565b90601f8019910116810190811067ffffffffffffffff82111761085f57604052565b67ffffffffffffffff811161085f57601f01601f191660200190565b3d156108e9573d906108cf826108a2565b916108dd6040519384610880565b82523d6000602084013e565b606090565b908060209392818452848401376000828201840152601f01601f1916010190565b60005b8381106109225750506000910152565b8181015183820152602001610912565b9060209161094b8151809281855285808601910161090f565b601f01601f1916010190565b929161098394926109759285526060602086015260608501916108ee565b916040818403910152610932565b90565b9082818152602080910193818360051b82010194846000925b8584106109b0575050505050505090565b90919293949596601f198282030184528735605e19843603018112156101255783016001600160a01b0381356109e5816101cb565b168252868101358783015260409081810135601e198236030181121561012557019087823592019267ffffffffffffffff83116101255782360384136101255760019389938493610a3e936060809282015201916108ee565b99019401940192959493919061099f565b90926080926001600160a01b036109839795168352602083015260408201528160608201520191610986565b634e487b7160e01b600052601160045260246000fd5b600019810191908211610aa057565b610a7b565b9070014551231950b75fc4402da1732fc9bebe19918203918211610aa057565b634e487b7160e01b600052603260045260246000fd5b90821015610ae7570190565b610ac5565b929192610af8826108a2565b91610b066040519384610880565b829481845281830111610125578281602093846000960137010152565b15610b2a57565b606460405162461bcd60e51b815260206004820152601660248201527f494e53554646494349454e545f50524956494c454745000000000000000000006044820152fd5b67ffffffffffffffff811161085f5760051b60200190565b81601f82011215610125578051610b9c816108a2565b92610baa6040519485610880565b8184526020828401011161012557610983916020808501910161090f565b5190610bd3826101cb565b565b909160608284031261012557815167ffffffffffffffff908181116101255783019360408582031261012557604051610c0d81610843565b855183811161012557860182601f8201121561012557805196610c2f88610b6e565b610c3c6040519182610880565b88815260209860051b83018901898201868211610125578a80809601915b838310610c90575050505083520151868201529484015191821161012557610c89604091610983938601610b86565b9301610bc8565b81908351610c9d816101cb565b8152019101908590610c5a565b6020808252825160408383015280516060840181905260808401949183019060005b818110610ce25750505090604091015191015290565b82516001600160a01b031687529584019591840191600101610ccc565b15610d0657565b606460405162461bcd60e51b815260206004820152601760248201527f5245434f564552595f4e4f545f415554484f52495a45440000000000000000006044820152fd5b6000198114610aa05760010190565b8051821015610ae75760209160051b010190565b9060018201809211610aa057565b91908201809211610aa057565b6109839492606092825260208201528160408201520191610986565b15610dab57565b606460405162461bcd60e51b815260206004820152601260248201527f5245434f564552595f4e4f545f524541445900000000000000000000000000006044820152fd5b929190610dfb81610b6e565b91604091610e0b83519485610880565b839581855260208095019160051b8101938385116101255781925b858410610e365750505050505050565b67ffffffffffffffff9084358281116101255784019160608388031261012557835192610e6284610864565b8035610e6d816101cb565b8452898101358a8501528481013591821161012557019086601f83011215610125578892610ea18884868096359101610aec565b85820152815201930192610e26565b15610eb757565b606460405162461bcd60e51b815260206004820152601860248201527f50524956494c4547455f4e4f545f444f574e47524144454400000000000000006044820152fd5b9192600190815491604091825190602080830183610f1d898b8a463087610a4f565b0393610f31601f1995868101835282610880565b5190209860ff610f7c610f76610f50610f4987610a91565b8786610adb565b357fff000000000000000000000000000000000000000000000000000000000000001690565b60f81c90565b169260ff841480156112cd575b1561126b5791610fbf610fb0610fab60fe9d9896946110139a98963691610aec565b6113c1565b50828082518301019101610bd5565b939061101a6001600160a01b038096169e8f931492895186810190610ff481610fe88985610caa565b038b8101835282610880565b5190209b8c916001600160a01b03166000526000602052604060002090565b5414610cff565b61102e896000526002602052604060002090565b549586151580611263575b156110dc575050505050506110bb956104d4956110d499957fdef2c5a081ab1dd3f896874500de5f4045efd102a452bce3af5123459f461f1b610bd39c9a9661109b6110966104cd98611090611096994211610da4565b54610d4a565b600155565b6000838152600260205260408120555142815280602081010390a3610d6d565b6001600160a01b03166000526000602052604060002090565b541515610eb0565b61113093959e50879d999b989a9c97929496508b9085600014611257578b518881019283526363616e636020840152906111229082604085015b03908101835282610880565b51902090829e93929161182b565b6000918291169b5b6111f8575b506111529192939495969798999a9b50610cff565b156111a45750505050507ff38fc5203ec5ac432b66df0ed37402f7b1afb377ddce98e08c2bf696c7187405906000611194846000526002602052604060002090565b555142815280602081015b0390a4565b946111d761119f93927f58d616db4bbaccaaad10b948d290b9df7973a7b566f83a68e2e0e7f4e5c61ccd97015142610d7b565b6111eb886000526002602052604060002090565b5551938493429085610d88565b835180518210156112515761122e6112226112158f938590610d59565b516001600160a01b031690565b6001600160a01b031690565b146112435761123d8d91610d4a565b90611138565b50999a8b9a5061115261113d565b5061113d565b5090829e93929161182b565b508215611039565b6104d496506110bb979894506104cd9350611096925094610bd39a61129961129f936110d49c983691610aec565b9061182b565b966112c86112c0896001600160a01b03166000526000602052604060002090565b541515610b23565b610d6d565b5060fe8414610f89565b9190811015610ae75760051b81013590603e1981360301821215610125570190565b8051600091825b82811061130d5750505050565b6113178183610d59565b5184806001600160a01b03835116602090818501516040809601519283519301915af11561134e575061134990610d4a565b611300565b513d908186823efd5b600090611299611371936001600160a01b03953691610aec565b166000526000602052604060002054151560001461139457630b135d3f60e11b90565b6001600160e01b031990565b805160401015610ae75760600190565b908151811015610ae7570160200190565b90600019916113d383825101826113b0565b5160f81c928151908101908111610aa0576113ee9082611446565b9190565b6020815111156114025760209052565b606460405162461bcd60e51b815260206004820152601860248201527f42797465734c69623a206f6e6c7920736872696e6b696e6700000000000000006044820152fd5b81815111156114025752565b1561145957565b606460405162461bcd60e51b815260206004820152600960248201527f53565f5349474c454e00000000000000000000000000000000000000000000006044820152fd5b600711156114a757565b634e487b7160e01b600052602160045260246000fd5b156114c457565b606460405162461bcd60e51b815260206004820152600a60248201527f53565f5349474d4f4445000000000000000000000000000000000000000000006044820152fd5b1561150f57565b606460405162461bcd60e51b815260206004820152600f60248201527f53565f53504f4f465f4f524947494e00000000000000000000000000000000006044820152fd5b1561155a57565b606460405162461bcd60e51b815260206004820152600c60248201527f53565f53504f4f465f4c454e00000000000000000000000000000000000000006044820152fd5b6040513d6000823e3d90fd5b1561012557565b908160209103126101255751610983816101cb565b156115cd57565b606460405162461bcd60e51b815260206004820152600d60248201527f53565f4c454e5f57414c4c4554000000000000000000000000000000000000006044820152fd5b90816020910312610125575161098381610113565b604090610983939281528160208201520190610932565b1561164457565b606460405162461bcd60e51b815260206004820152601160248201527f53565f57414c4c45545f494e56414c49440000000000000000000000000000006044820152fd5b1561168f57565b606460405162461bcd60e51b815260206004820152600b60248201527f53565f5a45524f5f5349470000000000000000000000000000000000000000006044820152fd5b90602090818382031261012557825167ffffffffffffffff93848211610125570181601f8201121561012557805161170a81610b6e565b946117186040519687610880565b818652848087019260051b8401019380851161012557858401925b858410611744575050505050505090565b835183811161012557879161175e848480948a0101610b86565b815201930192611733565b9190826080910312610125578151916020810151916060604083015192015160ff811681036101255790565b1561179c57565b606460405162461bcd60e51b815260206004820152601160248201527f53565f5343484e4f52525f4641494c45440000000000000000000000000000006044820152fd5b156117e757565b606460405162461bcd60e51b815260206004820152600660248201527f53565f4c454e00000000000000000000000000000000000000000000000000006044820152fd5b90929160009161183d85511515611452565b60ff61187a610f76611854600019895101896113b0565b517fff000000000000000000000000000000000000000000000000000000000000001690565b1691611888600684106114bd565b6118918361149d565b61189a8361149d565b82158015611de9575b156119a057509084839495926118bf60426020969551146117e0565b6118c882611dfc565b9160016118e3610f766118546118dd85611e50565b946113a0565b946118ed8161149d565b14611946575b61191e9192604051948594859094939260ff6060936080840197845216602083015260408201520152565b838052039060015afa1561194157516109836001600160a01b0382161515611688565b61159e565b61191e91604051611996816119888a82019485603c917f19457468657265756d205369676e6564204d6573736167653a0a3332000000008252601c8201520190565b03601f198101835282610880565b51902091506118f3565b9092916119ac8161149d565b60048103611b4b575050611a4a816020611a1a936119e9886119db6119d5611a239a9b51610a91565b82611446565b838082518301019101611769565b969092829a8199899583611a1370014551231950b75fc4402da1732fc9bebe198096819409610aa5565b9609610aa5565b918414156115aa565b88604051948594859094939260ff6060936080840197845216602083015260408201520152565b838052039060015afa156119415761098394611222948493611adf611afc945192611a7f6001600160a01b0385161515611688565b6040519687936020850195869290605594927fff00000000000000000000000000000000000000000000000000000000000000916bffffffffffffffffffffffff199060601b16855260f81b166014840152601583015260358201520190565b0393611af3601f1995868101835282610880565b51902014611795565b611b3c60405191826111166020820195866027917f5343484e4f525200000000000000000000000000000000000000000000000000825260078201520190565b5190206001600160a01b031690565b611b578196949661149d565b60058103611c15575050611b74611b6e8351610a91565b83611446565b611b886020928380825183010191016116d3565b93819482955b81518714611bfa57611bab84611ba48985610d59565b518561182b565b611222611bf492611988611b3c611bee946040519283918c83019586906028926bffffffffffffffffffffffff19809260601b16835260601b1660148201520190565b96610d4a565b95611b8e565b949550505050506109836001600160a01b0382161515611688565b611c2381969394959661149d565b60028103611ce8575050611c8891611c3e60218551116115c6565b60206001600160a01b038119865101611c6a611c63611222611222611222858c611e60565b9188611446565b169460405180958192630b135d3f60e11b9687845260048401611626565b0381875afa801561194157611caf936001600160e01b03199291611cba575b50161461163d565b610983811515611688565b611cdb915060203d8111611ce1575b611cd38183610880565b810190611611565b38611ca7565b503d611cc9565b6003919250611cf68161149d565b149081611de1575b50611d485760405162461bcd60e51b815260206004820152600760248201527f53565f54595045000000000000000000000000000000000000000000000000006044820152606490fd5b600132148015611dd6575b611d5c90611508565b611d696021835114611553565b611d72826113f2565b60208160405180611d9a81906000606060808401938281528260208201528260408201520152565b838052039060015afa156119415761098391611dc7611b396001600160a01b0361122294511614156115aa565b602080825183010191016115b1565b5032611b3914611d53565b905038611cfe565b50611df38361149d565b600183146118a3565b6020815110611e0c576020015190565b606460405162461bcd60e51b815260206004820152601060248201527f42797465734c69623a206c656e677468000000000000000000000000000000006044820152fd5b6040815110611e0c576040015190565b9060208101808211610aa057825110611e0c5701602001519056fea2646970667358221220f72d51961c35d820c2f27ddb4ebecd368a156afde35ca5ade81a0e9b3bd0fd5864736f6c63430008130033","opcodes":"PUSH1 0x80 DUP1 PUSH1 0x40 MSTORE CALLVALUE PUSH2 0x16 JUMPI PUSH2 0x1EB1 SWAP1 DUP2 PUSH2 0x1C DUP3 CODECOPY RETURN JUMPDEST PUSH1 0x0 DUP1 REVERT INVALID PUSH1 0x80 PUSH1 0x40 MSTORE PUSH1 0x4 CALLDATASIZE LT ISZERO PUSH2 0x1E JUMPI JUMPDEST CALLDATASIZE ISZERO PUSH2 0x1C JUMPI PUSH2 0x1C PUSH2 0x79F JUMP JUMPDEST STOP JUMPDEST PUSH1 0x0 CALLDATALOAD PUSH1 0xE0 SHR DUP1 PUSH4 0x1FFC9A7 EQ PUSH2 0x10E JUMPI DUP1 PUSH4 0xD5828D4 EQ PUSH2 0x109 JUMPI DUP1 PUSH4 0x150B7A02 EQ PUSH2 0x104 JUMPI DUP1 PUSH4 0x160AA0EF EQ PUSH2 0xFF JUMPI DUP1 PUSH4 0x1626BA7E EQ PUSH2 0xFA JUMPI DUP1 PUSH4 0x3628D042 EQ PUSH2 0xF5 JUMPI DUP1 PUSH4 0x6171D1C9 EQ PUSH2 0xF0 JUMPI DUP1 PUSH4 0x6769DE82 EQ PUSH2 0xEB JUMPI DUP1 PUSH4 0xA2EA6766 EQ PUSH2 0xE6 JUMPI DUP1 PUSH4 0xABC5345E EQ PUSH2 0xE1 JUMPI DUP1 PUSH4 0xAFFED0E0 EQ PUSH2 0xDC JUMPI DUP1 PUSH4 0xBC197C81 EQ PUSH2 0xD7 JUMPI DUP1 PUSH4 0xBF1CB383 EQ PUSH2 0xD2 JUMPI DUP1 PUSH4 0xC066A5B1 EQ PUSH2 0xCD JUMPI PUSH4 0xF23A6E61 SUB PUSH2 0xE JUMPI PUSH2 0x72C JUMP JUMPDEST PUSH2 0x6EE JUMP JUMPDEST PUSH2 0x685 JUMP JUMPDEST PUSH2 0x5DC JUMP JUMPDEST PUSH2 0x5BE JUMP JUMPDEST PUSH2 0x57B JUMP JUMPDEST PUSH2 0x4D9 JUMP JUMPDEST PUSH2 0x4B3 JUMP JUMPDEST PUSH2 0x433 JUMP JUMPDEST PUSH2 0x34D JUMP JUMPDEST PUSH2 0x2FC JUMP JUMPDEST PUSH2 0x2D0 JUMP JUMPDEST PUSH2 0x276 JUMP JUMPDEST PUSH2 0x1DC JUMP JUMPDEST PUSH2 0x12A JUMP JUMPDEST PUSH1 0x1 PUSH1 0x1 PUSH1 0xE0 SHL SUB NOT DUP2 AND SUB PUSH2 0x125 JUMPI JUMP JUMPDEST PUSH1 0x0 DUP1 REVERT JUMPDEST CALLVALUE PUSH2 0x125 JUMPI PUSH1 0x20 CALLDATASIZE PUSH1 0x3 NOT ADD SLT PUSH2 0x125 JUMPI PUSH1 0x20 PUSH1 0x1 PUSH1 0x1 PUSH1 0xE0 SHL SUB NOT PUSH1 0x4 CALLDATALOAD PUSH2 0x152 DUP2 PUSH2 0x113 JUMP JUMPDEST AND PUSH32 0x1FFC9A700000000000000000000000000000000000000000000000000000000 DUP2 EQ SWAP1 DUP2 ISZERO PUSH2 0x1BA JUMPI JUMPDEST DUP2 ISZERO PUSH2 0x190 JUMPI JUMPDEST POP PUSH1 0x40 MLOAD SWAP1 ISZERO ISZERO DUP2 MSTORE RETURN JUMPDEST PUSH32 0x4E2312E000000000000000000000000000000000000000000000000000000000 SWAP2 POP EQ CODESIZE PUSH2 0x185 JUMP JUMPDEST PUSH4 0xA85BD01 PUSH1 0xE1 SHL DUP2 EQ SWAP2 POP PUSH2 0x17E JUMP JUMPDEST PUSH1 0x1 PUSH1 0x1 PUSH1 0xA0 SHL SUB DUP2 AND SUB PUSH2 0x125 JUMPI JUMP JUMPDEST PUSH1 0x40 CALLDATASIZE PUSH1 0x3 NOT ADD SLT PUSH2 0x125 JUMPI PUSH1 0x4 CALLDATALOAD PUSH2 0x1F4 DUP2 PUSH2 0x1CB JUMP JUMPDEST PUSH32 0x8AC40E0195C5998554E98853C23964A13A24309E127B2D016E8EC4ADECF5E83 PUSH1 0x20 PUSH1 0x1 PUSH1 0x1 PUSH1 0xA0 SHL SUB PUSH1 0x24 CALLDATALOAD SWAP4 PUSH2 0x22E ADDRESS CALLER EQ PUSH2 0x7E2 JUMP JUMPDEST AND SWAP3 DUP4 PUSH1 0x0 MSTORE PUSH1 0x0 DUP3 MSTORE DUP1 PUSH1 0x40 PUSH1 0x0 KECCAK256 SSTORE PUSH1 0x40 MLOAD SWAP1 DUP2 MSTORE LOG2 STOP JUMPDEST SWAP2 DUP2 PUSH1 0x1F DUP5 ADD SLT ISZERO PUSH2 0x125 JUMPI DUP3 CALLDATALOAD SWAP2 PUSH8 0xFFFFFFFFFFFFFFFF DUP4 GT PUSH2 0x125 JUMPI PUSH1 0x20 DUP4 DUP2 DUP7 ADD SWAP6 ADD ADD GT PUSH2 0x125 JUMPI JUMP JUMPDEST CALLVALUE PUSH2 0x125 JUMPI PUSH1 0x80 CALLDATASIZE PUSH1 0x3 NOT ADD SLT PUSH2 0x125 JUMPI PUSH2 0x292 PUSH1 0x4 CALLDATALOAD PUSH2 0x1CB JUMP JUMPDEST PUSH2 0x29D PUSH1 0x24 CALLDATALOAD PUSH2 0x1CB JUMP JUMPDEST PUSH1 0x64 CALLDATALOAD PUSH8 0xFFFFFFFFFFFFFFFF DUP2 GT PUSH2 0x125 JUMPI PUSH2 0x2BD SWAP1 CALLDATASIZE SWAP1 PUSH1 0x4 ADD PUSH2 0x248 JUMP JUMPDEST POP POP PUSH1 0x20 PUSH1 0x40 MLOAD PUSH4 0xA85BD01 PUSH1 0xE1 SHL DUP2 MSTORE RETURN JUMPDEST CALLVALUE PUSH2 0x125 JUMPI PUSH1 0x20 CALLDATASIZE PUSH1 0x3 NOT ADD SLT PUSH2 0x125 JUMPI PUSH1 0x4 CALLDATALOAD PUSH1 0x0 MSTORE PUSH1 0x2 PUSH1 0x20 MSTORE PUSH1 0x20 PUSH1 0x40 PUSH1 0x0 KECCAK256 SLOAD PUSH1 0x40 MLOAD SWAP1 DUP2 MSTORE RETURN JUMPDEST CALLVALUE PUSH2 0x125 JUMPI PUSH1 0x40 CALLDATASIZE PUSH1 0x3 NOT ADD SLT PUSH2 0x125 JUMPI PUSH1 0x24 CALLDATALOAD PUSH8 0xFFFFFFFFFFFFFFFF DUP2 GT PUSH2 0x125 JUMPI PUSH2 0x33B PUSH2 0x332 PUSH1 0x20 SWAP3 CALLDATASIZE SWAP1 PUSH1 0x4 ADD PUSH2 0x248 JUMP JUMPDEST SWAP1 PUSH1 0x4 CALLDATALOAD PUSH2 0x1357 JUMP JUMPDEST PUSH1 0x1 PUSH1 0x1 PUSH1 0xE0 SHL SUB NOT PUSH1 0x40 MLOAD SWAP2 AND DUP2 MSTORE RETURN JUMPDEST PUSH1 0x80 CALLDATASIZE PUSH1 0x3 NOT ADD SLT PUSH2 0x125 JUMPI PUSH1 0x4 CALLDATALOAD PUSH2 0x365 DUP2 PUSH2 0x1CB JUMP JUMPDEST PUSH1 0x24 CALLDATALOAD SWAP1 PUSH1 0x44 CALLDATALOAD PUSH8 0xFFFFFFFFFFFFFFFF DUP2 GT PUSH2 0x125 JUMPI PUSH2 0x389 SWAP1 CALLDATASIZE SWAP1 PUSH1 0x4 ADD PUSH2 0x248 JUMP JUMPDEST SWAP1 SWAP2 PUSH2 0x396 ADDRESS CALLER EQ PUSH2 0x7E2 JUMP JUMPDEST PUSH1 0x0 DUP1 PUSH1 0x40 MLOAD DUP5 DUP7 DUP3 CALLDATACOPY DUP1 DUP6 DUP2 ADD DUP4 DUP2 MSTORE SUB SWAP1 DUP8 DUP6 PUSH1 0x64 CALLDATALOAD CALL SWAP3 PUSH2 0x3B8 PUSH2 0x8BE JUMP JUMPDEST SWAP4 ISZERO PUSH2 0x3C0 JUMPI STOP JUMPDEST PUSH32 0x80C2637928BD94D0E1A90EAAC1EFC1553BE6391D962FE5C82A01E90122C84CCC SWAP4 PUSH1 0x1 PUSH1 0x1 PUSH1 0xA0 SHL SUB SWAP4 PUSH2 0x3FD SWAP3 PUSH1 0x40 MLOAD SWAP6 DUP7 SWAP6 AND SWAP8 DUP6 PUSH2 0x957 JUMP JUMPDEST SUB SWAP1 LOG2 STOP JUMPDEST SWAP2 DUP2 PUSH1 0x1F DUP5 ADD SLT ISZERO PUSH2 0x125 JUMPI DUP3 CALLDATALOAD SWAP2 PUSH8 0xFFFFFFFFFFFFFFFF DUP4 GT PUSH2 0x125 JUMPI PUSH1 0x20 DUP1 DUP6 ADD SWAP5 DUP5 PUSH1 0x5 SHL ADD ADD GT PUSH2 0x125 JUMPI JUMP JUMPDEST PUSH1 0x40 CALLDATASIZE PUSH1 0x3 NOT ADD SLT PUSH2 0x125 JUMPI PUSH8 0xFFFFFFFFFFFFFFFF PUSH1 0x4 CALLDATALOAD DUP2 DUP2 GT PUSH2 0x125 JUMPI PUSH2 0x460 SWAP1 CALLDATASIZE SWAP1 PUSH1 0x4 ADD PUSH2 0x402 JUMP JUMPDEST SWAP1 PUSH1 0x24 CALLDATALOAD SWAP3 DUP4 GT PUSH2 0x125 JUMPI PUSH2 0x47C PUSH2 0x1C SWAP4 CALLDATASIZE SWAP1 PUSH1 0x4 ADD PUSH2 0x248 JUMP JUMPDEST SWAP3 SWAP1 SWAP2 PUSH2 0xEFB JUMP JUMPDEST PUSH1 0x20 PUSH1 0x3 NOT DUP3 ADD SLT PUSH2 0x125 JUMPI PUSH1 0x4 CALLDATALOAD SWAP1 PUSH8 0xFFFFFFFFFFFFFFFF DUP3 GT PUSH2 0x125 JUMPI PUSH2 0x4AF SWAP2 PUSH1 0x4 ADD PUSH2 0x402 JUMP JUMPDEST SWAP1 SWAP2 JUMP JUMPDEST PUSH2 0x1C PUSH2 0x4D4 PUSH2 0x4C2 CALLDATASIZE PUSH2 0x484 JUMP JUMPDEST PUSH2 0x4CD ADDRESS CALLER EQ PUSH2 0x7E2 JUMP JUMPDEST CALLDATASIZE SWAP2 PUSH2 0xDEF JUMP JUMPDEST PUSH2 0x12F9 JUMP JUMPDEST PUSH2 0x4E2 CALLDATASIZE PUSH2 0x484 JUMP JUMPDEST SWAP1 PUSH1 0x0 JUMPDEST DUP3 DUP2 SUB PUSH2 0x4EF JUMPI STOP JUMPDEST PUSH2 0x4FA DUP2 DUP5 DUP5 PUSH2 0x12D7 JUMP JUMPDEST SWAP1 DUP2 CALLDATALOAD PUSH1 0x1E NOT SWAP3 DUP4 DUP2 CALLDATASIZE SUB ADD DUP3 SLT ISZERO PUSH2 0x125 JUMPI ADD SWAP2 DUP3 CALLDATALOAD SWAP3 PUSH8 0xFFFFFFFFFFFFFFFF SWAP1 DUP2 DUP6 GT PUSH2 0x125 JUMPI PUSH1 0x20 DUP1 SWAP2 ADD SWAP3 DUP6 PUSH1 0x5 SHL CALLDATASIZE SUB DUP5 SGT PUSH2 0x125 JUMPI PUSH2 0x540 DUP6 DUP10 DUP10 PUSH2 0x12D7 JUMP JUMPDEST DUP3 DUP2 ADD CALLDATALOAD SWAP2 DUP2 CALLDATASIZE SUB ADD DUP3 SLT ISZERO PUSH2 0x125 JUMPI ADD DUP1 CALLDATALOAD SWAP3 DUP4 GT PUSH2 0x125 JUMPI ADD DUP2 CALLDATASIZE SUB DUP2 SGT PUSH2 0x125 JUMPI PUSH2 0x576 SWAP5 PUSH2 0x571 SWAP4 PUSH2 0xEFB JUMP JUMPDEST PUSH2 0xD4A JUMP JUMPDEST PUSH2 0x4E6 JUMP JUMPDEST PUSH2 0x4D4 PUSH2 0x5A5 PUSH2 0x58A CALLDATASIZE PUSH2 0x484 JUMP JUMPDEST SWAP3 SWAP1 PUSH1 0x0 SWAP4 CALLER DUP6 MSTORE DUP5 PUSH1 0x20 MSTORE PUSH2 0x4CD PUSH1 0x40 DUP7 KECCAK256 SLOAD ISZERO ISZERO PUSH2 0xB23 JUMP JUMPDEST CALLER DUP2 MSTORE DUP1 PUSH1 0x20 MSTORE PUSH2 0x5BB PUSH1 0x40 DUP3 KECCAK256 SLOAD ISZERO ISZERO PUSH2 0xEB0 JUMP JUMPDEST DUP1 RETURN JUMPDEST CALLVALUE PUSH2 0x125 JUMPI PUSH1 0x0 CALLDATASIZE PUSH1 0x3 NOT ADD SLT PUSH2 0x125 JUMPI PUSH1 0x20 PUSH1 0x1 SLOAD PUSH1 0x40 MLOAD SWAP1 DUP2 MSTORE RETURN JUMPDEST CALLVALUE PUSH2 0x125 JUMPI PUSH1 0xA0 CALLDATASIZE PUSH1 0x3 NOT ADD SLT PUSH2 0x125 JUMPI PUSH2 0x5F8 PUSH1 0x4 CALLDATALOAD PUSH2 0x1CB JUMP JUMPDEST PUSH2 0x603 PUSH1 0x24 CALLDATALOAD PUSH2 0x1CB JUMP JUMPDEST PUSH8 0xFFFFFFFFFFFFFFFF PUSH1 0x44 CALLDATALOAD DUP2 DUP2 GT PUSH2 0x125 JUMPI PUSH2 0x624 SWAP1 CALLDATASIZE SWAP1 PUSH1 0x4 ADD PUSH2 0x402 JUMP JUMPDEST POP POP PUSH1 0x64 CALLDATALOAD DUP2 DUP2 GT PUSH2 0x125 JUMPI PUSH2 0x63E SWAP1 CALLDATASIZE SWAP1 PUSH1 0x4 ADD PUSH2 0x402 JUMP JUMPDEST POP POP PUSH1 0x84 CALLDATALOAD SWAP1 DUP2 GT PUSH2 0x125 JUMPI PUSH2 0x658 SWAP1 CALLDATASIZE SWAP1 PUSH1 0x4 ADD PUSH2 0x248 JUMP JUMPDEST POP POP PUSH1 0x40 MLOAD PUSH32 0xBC197C8100000000000000000000000000000000000000000000000000000000 DUP2 MSTORE PUSH1 0x20 SWAP1 RETURN JUMPDEST PUSH1 0x60 CALLDATASIZE PUSH1 0x3 NOT ADD SLT PUSH2 0x125 JUMPI PUSH1 0x4 CALLDATALOAD PUSH2 0x69D DUP2 PUSH2 0x1CB JUMP JUMPDEST PUSH1 0x24 CALLDATALOAD SWAP1 PUSH1 0x44 CALLDATALOAD PUSH8 0xFFFFFFFFFFFFFFFF DUP2 GT PUSH2 0x125 JUMPI PUSH2 0x6C1 SWAP1 CALLDATASIZE SWAP1 PUSH1 0x4 ADD PUSH2 0x248 JUMP JUMPDEST SWAP1 SWAP2 PUSH2 0x6CE ADDRESS CALLER EQ PUSH2 0x7E2 JUMP JUMPDEST PUSH1 0x0 DUP1 GAS PUSH1 0x40 MLOAD DUP6 DUP8 DUP3 CALLDATACOPY DUP8 DUP6 DUP3 DUP9 DUP2 ADD DUP7 DUP2 MSTORE SUB SWAP4 CALL SWAP3 PUSH2 0x3B8 PUSH2 0x8BE JUMP JUMPDEST CALLVALUE PUSH2 0x125 JUMPI PUSH1 0x20 CALLDATASIZE PUSH1 0x3 NOT ADD SLT PUSH2 0x125 JUMPI PUSH1 0x1 PUSH1 0x1 PUSH1 0xA0 SHL SUB PUSH1 0x4 CALLDATALOAD PUSH2 0x713 DUP2 PUSH2 0x1CB JUMP JUMPDEST AND PUSH1 0x0 MSTORE PUSH1 0x0 PUSH1 0x20 MSTORE PUSH1 0x20 PUSH1 0x40 PUSH1 0x0 KECCAK256 SLOAD PUSH1 0x40 MLOAD SWAP1 DUP2 MSTORE RETURN JUMPDEST CALLVALUE PUSH2 0x125 JUMPI PUSH1 0xA0 CALLDATASIZE PUSH1 0x3 NOT ADD SLT PUSH2 0x125 JUMPI PUSH2 0x748 PUSH1 0x4 CALLDATALOAD PUSH2 0x1CB JUMP JUMPDEST PUSH2 0x753 PUSH1 0x24 CALLDATALOAD PUSH2 0x1CB JUMP JUMPDEST PUSH1 0x84 CALLDATALOAD PUSH8 0xFFFFFFFFFFFFFFFF DUP2 GT PUSH2 0x125 JUMPI PUSH2 0x773 SWAP1 CALLDATASIZE SWAP1 PUSH1 0x4 ADD PUSH2 0x248 JUMP JUMPDEST POP POP PUSH1 0x20 PUSH1 0x40 MLOAD PUSH32 0xF23A6E6100000000000000000000000000000000000000000000000000000000 DUP2 MSTORE RETURN JUMPDEST PUSH1 0x0 SWAP1 PUSH2 0x6969 DUP3 MSTORE DUP2 PUSH1 0x20 MSTORE PUSH1 0x1 PUSH1 0x1 PUSH1 0xA0 SHL SUB PUSH1 0x40 DUP4 KECCAK256 SLOAD AND SWAP1 DUP2 ISZERO PUSH2 0x7DD JUMPI POP DUP2 DUP1 SWAP2 CALLDATASIZE DUP3 DUP1 CALLDATACOPY DUP2 CALLDATASIZE SWAP2 GAS DELEGATECALL SWAP1 RETURNDATASIZE SWAP2 DUP3 DUP3 DUP1 RETURNDATACOPY ISZERO PUSH2 0x7DB JUMPI RETURN JUMPDEST REVERT JUMPDEST SWAP2 POP POP JUMP JUMPDEST ISZERO PUSH2 0x7E9 JUMPI JUMP JUMPDEST PUSH1 0x64 PUSH1 0x40 MLOAD PUSH3 0x461BCD PUSH1 0xE5 SHL DUP2 MSTORE PUSH1 0x20 PUSH1 0x4 DUP3 ADD MSTORE PUSH1 0x16 PUSH1 0x24 DUP3 ADD MSTORE PUSH32 0x4F4E4C595F4944454E544954595F43414E5F43414C4C00000000000000000000 PUSH1 0x44 DUP3 ADD MSTORE REVERT JUMPDEST PUSH4 0x4E487B71 PUSH1 0xE0 SHL PUSH1 0x0 MSTORE PUSH1 0x41 PUSH1 0x4 MSTORE PUSH1 0x24 PUSH1 0x0 REVERT JUMPDEST PUSH1 0x40 DUP2 ADD SWAP1 DUP2 LT PUSH8 0xFFFFFFFFFFFFFFFF DUP3 GT OR PUSH2 0x85F JUMPI PUSH1 0x40 MSTORE JUMP JUMPDEST PUSH2 0x82D JUMP JUMPDEST PUSH1 0x60 DUP2 ADD SWAP1 DUP2 LT PUSH8 0xFFFFFFFFFFFFFFFF DUP3 GT OR PUSH2 0x85F JUMPI PUSH1 0x40 MSTORE JUMP JUMPDEST SWAP1 PUSH1 0x1F DUP1 NOT SWAP2 ADD AND DUP2 ADD SWAP1 DUP2 LT PUSH8 0xFFFFFFFFFFFFFFFF DUP3 GT OR PUSH2 0x85F JUMPI PUSH1 0x40 MSTORE JUMP JUMPDEST PUSH8 0xFFFFFFFFFFFFFFFF DUP2 GT PUSH2 0x85F JUMPI PUSH1 0x1F ADD PUSH1 0x1F NOT AND PUSH1 0x20 ADD SWAP1 JUMP JUMPDEST RETURNDATASIZE ISZERO PUSH2 0x8E9 JUMPI RETURNDATASIZE SWAP1 PUSH2 0x8CF DUP3 PUSH2 0x8A2 JUMP JUMPDEST SWAP2 PUSH2 0x8DD PUSH1 0x40 MLOAD SWAP4 DUP5 PUSH2 0x880 JUMP JUMPDEST DUP3 MSTORE RETURNDATASIZE PUSH1 0x0 PUSH1 0x20 DUP5 ADD RETURNDATACOPY JUMP JUMPDEST PUSH1 0x60 SWAP1 JUMP JUMPDEST SWAP1 DUP1 PUSH1 0x20 SWAP4 SWAP3 DUP2 DUP5 MSTORE DUP5 DUP5 ADD CALLDATACOPY PUSH1 0x0 DUP3 DUP3 ADD DUP5 ADD MSTORE PUSH1 0x1F ADD PUSH1 0x1F NOT AND ADD ADD SWAP1 JUMP JUMPDEST PUSH1 0x0 JUMPDEST DUP4 DUP2 LT PUSH2 0x922 JUMPI POP POP PUSH1 0x0 SWAP2 ADD MSTORE JUMP JUMPDEST DUP2 DUP2 ADD MLOAD DUP4 DUP3 ADD MSTORE PUSH1 0x20 ADD PUSH2 0x912 JUMP JUMPDEST SWAP1 PUSH1 0x20 SWAP2 PUSH2 0x94B DUP2 MLOAD DUP1 SWAP3 DUP2 DUP6 MSTORE DUP6 DUP1 DUP7 ADD SWAP2 ADD PUSH2 0x90F JUMP JUMPDEST PUSH1 0x1F ADD PUSH1 0x1F NOT AND ADD ADD SWAP1 JUMP JUMPDEST SWAP3 SWAP2 PUSH2 0x983 SWAP5 SWAP3 PUSH2 0x975 SWAP3 DUP6 MSTORE PUSH1 0x60 PUSH1 0x20 DUP7 ADD MSTORE PUSH1 0x60 DUP6 ADD SWAP2 PUSH2 0x8EE JUMP JUMPDEST SWAP2 PUSH1 0x40 DUP2 DUP5 SUB SWAP2 ADD MSTORE PUSH2 0x932 JUMP JUMPDEST SWAP1 JUMP JUMPDEST SWAP1 DUP3 DUP2 DUP2 MSTORE PUSH1 0x20 DUP1 SWAP2 ADD SWAP4 DUP2 DUP4 PUSH1 0x5 SHL DUP3 ADD ADD SWAP5 DUP5 PUSH1 0x0 SWAP3 JUMPDEST DUP6 DUP5 LT PUSH2 0x9B0 JUMPI POP POP POP POP POP POP POP SWAP1 JUMP JUMPDEST SWAP1 SWAP2 SWAP3 SWAP4 SWAP5 SWAP6 SWAP7 PUSH1 0x1F NOT DUP3 DUP3 SUB ADD DUP5 MSTORE DUP8 CALLDATALOAD PUSH1 0x5E NOT DUP5 CALLDATASIZE SUB ADD DUP2 SLT ISZERO PUSH2 0x125 JUMPI DUP4 ADD PUSH1 0x1 PUSH1 0x1 PUSH1 0xA0 SHL SUB DUP2 CALLDATALOAD PUSH2 0x9E5 DUP2 PUSH2 0x1CB JUMP JUMPDEST AND DUP3 MSTORE DUP7 DUP2 ADD CALLDATALOAD DUP8 DUP4 ADD MSTORE PUSH1 0x40 SWAP1 DUP2 DUP2 ADD CALLDATALOAD PUSH1 0x1E NOT DUP3 CALLDATASIZE SUB ADD DUP2 SLT ISZERO PUSH2 0x125 JUMPI ADD SWAP1 DUP8 DUP3 CALLDATALOAD SWAP3 ADD SWAP3 PUSH8 0xFFFFFFFFFFFFFFFF DUP4 GT PUSH2 0x125 JUMPI DUP3 CALLDATASIZE SUB DUP5 SGT PUSH2 0x125 JUMPI PUSH1 0x1 SWAP4 DUP10 SWAP4 DUP5 SWAP4 PUSH2 0xA3E SWAP4 PUSH1 0x60 DUP1 SWAP3 DUP3 ADD MSTORE ADD SWAP2 PUSH2 0x8EE JUMP JUMPDEST SWAP10 ADD SWAP5 ADD SWAP5 ADD SWAP3 SWAP6 SWAP5 SWAP4 SWAP2 SWAP1 PUSH2 0x99F JUMP JUMPDEST SWAP1 SWAP3 PUSH1 0x80 SWAP3 PUSH1 0x1 PUSH1 0x1 PUSH1 0xA0 SHL SUB PUSH2 0x983 SWAP8 SWAP6 AND DUP4 MSTORE PUSH1 0x20 DUP4 ADD MSTORE PUSH1 0x40 DUP3 ADD MSTORE DUP2 PUSH1 0x60 DUP3 ADD MSTORE ADD SWAP2 PUSH2 0x986 JUMP JUMPDEST PUSH4 0x4E487B71 PUSH1 0xE0 SHL PUSH1 0x0 MSTORE PUSH1 0x11 PUSH1 0x4 MSTORE PUSH1 0x24 PUSH1 0x0 REVERT JUMPDEST PUSH1 0x0 NOT DUP2 ADD SWAP2 SWAP1 DUP3 GT PUSH2 0xAA0 JUMPI JUMP JUMPDEST PUSH2 0xA7B JUMP JUMPDEST SWAP1 PUSH17 0x14551231950B75FC4402DA1732FC9BEBE NOT SWAP2 DUP3 SUB SWAP2 DUP3 GT PUSH2 0xAA0 JUMPI JUMP JUMPDEST PUSH4 0x4E487B71 PUSH1 0xE0 SHL PUSH1 0x0 MSTORE PUSH1 0x32 PUSH1 0x4 MSTORE PUSH1 0x24 PUSH1 0x0 REVERT JUMPDEST SWAP1 DUP3 LT ISZERO PUSH2 0xAE7 JUMPI ADD SWAP1 JUMP JUMPDEST PUSH2 0xAC5 JUMP JUMPDEST SWAP3 SWAP2 SWAP3 PUSH2 0xAF8 DUP3 PUSH2 0x8A2 JUMP JUMPDEST SWAP2 PUSH2 0xB06 PUSH1 0x40 MLOAD SWAP4 DUP5 PUSH2 0x880 JUMP JUMPDEST DUP3 SWAP5 DUP2 DUP5 MSTORE DUP2 DUP4 ADD GT PUSH2 0x125 JUMPI DUP3 DUP2 PUSH1 0x20 SWAP4 DUP5 PUSH1 0x0 SWAP7 ADD CALLDATACOPY ADD ADD MSTORE JUMP JUMPDEST ISZERO PUSH2 0xB2A JUMPI JUMP JUMPDEST PUSH1 0x64 PUSH1 0x40 MLOAD PUSH3 0x461BCD PUSH1 0xE5 SHL DUP2 MSTORE PUSH1 0x20 PUSH1 0x4 DUP3 ADD MSTORE PUSH1 0x16 PUSH1 0x24 DUP3 ADD MSTORE PUSH32 0x494E53554646494349454E545F50524956494C45474500000000000000000000 PUSH1 0x44 DUP3 ADD MSTORE REVERT JUMPDEST PUSH8 0xFFFFFFFFFFFFFFFF DUP2 GT PUSH2 0x85F JUMPI PUSH1 0x5 SHL PUSH1 0x20 ADD SWAP1 JUMP JUMPDEST DUP2 PUSH1 0x1F DUP3 ADD SLT ISZERO PUSH2 0x125 JUMPI DUP1 MLOAD PUSH2 0xB9C DUP2 PUSH2 0x8A2 JUMP JUMPDEST SWAP3 PUSH2 0xBAA PUSH1 0x40 MLOAD SWAP5 DUP6 PUSH2 0x880 JUMP JUMPDEST DUP2 DUP5 MSTORE PUSH1 0x20 DUP3 DUP5 ADD ADD GT PUSH2 0x125 JUMPI PUSH2 0x983 SWAP2 PUSH1 0x20 DUP1 DUP6 ADD SWAP2 ADD PUSH2 0x90F JUMP JUMPDEST MLOAD SWAP1 PUSH2 0xBD3 DUP3 PUSH2 0x1CB JUMP JUMPDEST JUMP JUMPDEST SWAP1 SWAP2 PUSH1 0x60 DUP3 DUP5 SUB SLT PUSH2 0x125 JUMPI DUP2 MLOAD PUSH8 0xFFFFFFFFFFFFFFFF SWAP1 DUP2 DUP2 GT PUSH2 0x125 JUMPI DUP4 ADD SWAP4 PUSH1 0x40 DUP6 DUP3 SUB SLT PUSH2 0x125 JUMPI PUSH1 0x40 MLOAD PUSH2 0xC0D DUP2 PUSH2 0x843 JUMP JUMPDEST DUP6 MLOAD DUP4 DUP2 GT PUSH2 0x125 JUMPI DUP7 ADD DUP3 PUSH1 0x1F DUP3 ADD SLT ISZERO PUSH2 0x125 JUMPI DUP1 MLOAD SWAP7 PUSH2 0xC2F DUP9 PUSH2 0xB6E JUMP JUMPDEST PUSH2 0xC3C PUSH1 0x40 MLOAD SWAP2 DUP3 PUSH2 0x880 JUMP JUMPDEST DUP9 DUP2 MSTORE PUSH1 0x20 SWAP9 PUSH1 0x5 SHL DUP4 ADD DUP10 ADD DUP10 DUP3 ADD DUP7 DUP3 GT PUSH2 0x125 JUMPI DUP11 DUP1 DUP1 SWAP7 ADD SWAP2 JUMPDEST DUP4 DUP4 LT PUSH2 0xC90 JUMPI POP POP POP POP DUP4 MSTORE ADD MLOAD DUP7 DUP3 ADD MSTORE SWAP5 DUP5 ADD MLOAD SWAP2 DUP3 GT PUSH2 0x125 JUMPI PUSH2 0xC89 PUSH1 0x40 SWAP2 PUSH2 0x983 SWAP4 DUP7 ADD PUSH2 0xB86 JUMP JUMPDEST SWAP4 ADD PUSH2 0xBC8 JUMP JUMPDEST DUP2 SWAP1 DUP4 MLOAD PUSH2 0xC9D DUP2 PUSH2 0x1CB JUMP JUMPDEST DUP2 MSTORE ADD SWAP2 ADD SWAP1 DUP6 SWAP1 PUSH2 0xC5A JUMP JUMPDEST PUSH1 0x20 DUP1 DUP3 MSTORE DUP3 MLOAD PUSH1 0x40 DUP4 DUP4 ADD MSTORE DUP1 MLOAD PUSH1 0x60 DUP5 ADD DUP2 SWAP1 MSTORE PUSH1 0x80 DUP5 ADD SWAP5 SWAP2 DUP4 ADD SWAP1 PUSH1 0x0 JUMPDEST DUP2 DUP2 LT PUSH2 0xCE2 JUMPI POP POP POP SWAP1 PUSH1 0x40 SWAP2 ADD MLOAD SWAP2 ADD MSTORE SWAP1 JUMP JUMPDEST DUP3 MLOAD PUSH1 0x1 PUSH1 0x1 PUSH1 0xA0 SHL SUB AND DUP8 MSTORE SWAP6 DUP5 ADD SWAP6 SWAP2 DUP5 ADD SWAP2 PUSH1 0x1 ADD PUSH2 0xCCC JUMP JUMPDEST ISZERO PUSH2 0xD06 JUMPI JUMP JUMPDEST PUSH1 0x64 PUSH1 0x40 MLOAD PUSH3 0x461BCD PUSH1 0xE5 SHL DUP2 MSTORE PUSH1 0x20 PUSH1 0x4 DUP3 ADD MSTORE PUSH1 0x17 PUSH1 0x24 DUP3 ADD MSTORE PUSH32 0x5245434F564552595F4E4F545F415554484F52495A4544000000000000000000 PUSH1 0x44 DUP3 ADD MSTORE REVERT JUMPDEST PUSH1 0x0 NOT DUP2 EQ PUSH2 0xAA0 JUMPI PUSH1 0x1 ADD SWAP1 JUMP JUMPDEST DUP1 MLOAD DUP3 LT ISZERO PUSH2 0xAE7 JUMPI PUSH1 0x20 SWAP2 PUSH1 0x5 SHL ADD ADD SWAP1 JUMP JUMPDEST SWAP1 PUSH1 0x1 DUP3 ADD DUP1 SWAP3 GT PUSH2 0xAA0 JUMPI JUMP JUMPDEST SWAP2 SWAP1 DUP3 ADD DUP1 SWAP3 GT PUSH2 0xAA0 JUMPI JUMP JUMPDEST PUSH2 0x983 SWAP5 SWAP3 PUSH1 0x60 SWAP3 DUP3 MSTORE PUSH1 0x20 DUP3 ADD MSTORE DUP2 PUSH1 0x40 DUP3 ADD MSTORE ADD SWAP2 PUSH2 0x986 JUMP JUMPDEST ISZERO PUSH2 0xDAB JUMPI JUMP JUMPDEST PUSH1 0x64 PUSH1 0x40 MLOAD PUSH3 0x461BCD PUSH1 0xE5 SHL DUP2 MSTORE PUSH1 0x20 PUSH1 0x4 DUP3 ADD MSTORE PUSH1 0x12 PUSH1 0x24 DUP3 ADD MSTORE PUSH32 0x5245434F564552595F4E4F545F52454144590000000000000000000000000000 PUSH1 0x44 DUP3 ADD MSTORE REVERT JUMPDEST SWAP3 SWAP2 SWAP1 PUSH2 0xDFB DUP2 PUSH2 0xB6E JUMP JUMPDEST SWAP2 PUSH1 0x40 SWAP2 PUSH2 0xE0B DUP4 MLOAD SWAP5 DUP6 PUSH2 0x880 JUMP JUMPDEST DUP4 SWAP6 DUP2 DUP6 MSTORE PUSH1 0x20 DUP1 SWAP6 ADD SWAP2 PUSH1 0x5 SHL DUP2 ADD SWAP4 DUP4 DUP6 GT PUSH2 0x125 JUMPI DUP2 SWAP3 JUMPDEST DUP6 DUP5 LT PUSH2 0xE36 JUMPI POP POP POP POP POP POP POP JUMP JUMPDEST PUSH8 0xFFFFFFFFFFFFFFFF SWAP1 DUP5 CALLDATALOAD DUP3 DUP2 GT PUSH2 0x125 JUMPI DUP5 ADD SWAP2 PUSH1 0x60 DUP4 DUP9 SUB SLT PUSH2 0x125 JUMPI DUP4 MLOAD SWAP3 PUSH2 0xE62 DUP5 PUSH2 0x864 JUMP JUMPDEST DUP1 CALLDATALOAD PUSH2 0xE6D DUP2 PUSH2 0x1CB JUMP JUMPDEST DUP5 MSTORE DUP10 DUP2 ADD CALLDATALOAD DUP11 DUP6 ADD MSTORE DUP5 DUP2 ADD CALLDATALOAD SWAP2 DUP3 GT PUSH2 0x125 JUMPI ADD SWAP1 DUP7 PUSH1 0x1F DUP4 ADD SLT ISZERO PUSH2 0x125 JUMPI DUP9 SWAP3 PUSH2 0xEA1 DUP9 DUP5 DUP7 DUP1 SWAP7 CALLDATALOAD SWAP2 ADD PUSH2 0xAEC JUMP JUMPDEST DUP6 DUP3 ADD MSTORE DUP2 MSTORE ADD SWAP4 ADD SWAP3 PUSH2 0xE26 JUMP JUMPDEST ISZERO PUSH2 0xEB7 JUMPI JUMP JUMPDEST PUSH1 0x64 PUSH1 0x40 MLOAD PUSH3 0x461BCD PUSH1 0xE5 SHL DUP2 MSTORE PUSH1 0x20 PUSH1 0x4 DUP3 ADD MSTORE PUSH1 0x18 PUSH1 0x24 DUP3 ADD MSTORE PUSH32 0x50524956494C4547455F4E4F545F444F574E4752414445440000000000000000 PUSH1 0x44 DUP3 ADD MSTORE REVERT JUMPDEST SWAP2 SWAP3 PUSH1 0x1 SWAP1 DUP2 SLOAD SWAP2 PUSH1 0x40 SWAP2 DUP3 MLOAD SWAP1 PUSH1 0x20 DUP1 DUP4 ADD DUP4 PUSH2 0xF1D DUP10 DUP12 DUP11 CHAINID ADDRESS DUP8 PUSH2 0xA4F JUMP JUMPDEST SUB SWAP4 PUSH2 0xF31 PUSH1 0x1F NOT SWAP6 DUP7 DUP2 ADD DUP4 MSTORE DUP3 PUSH2 0x880 JUMP JUMPDEST MLOAD SWAP1 KECCAK256 SWAP9 PUSH1 0xFF PUSH2 0xF7C PUSH2 0xF76 PUSH2 0xF50 PUSH2 0xF49 DUP8 PUSH2 0xA91 JUMP JUMPDEST DUP8 DUP7 PUSH2 0xADB JUMP JUMPDEST CALLDATALOAD PUSH32 0xFF00000000000000000000000000000000000000000000000000000000000000 AND SWAP1 JUMP JUMPDEST PUSH1 0xF8 SHR SWAP1 JUMP JUMPDEST AND SWAP3 PUSH1 0xFF DUP5 EQ DUP1 ISZERO PUSH2 0x12CD JUMPI JUMPDEST ISZERO PUSH2 0x126B JUMPI SWAP2 PUSH2 0xFBF PUSH2 0xFB0 PUSH2 0xFAB PUSH1 0xFE SWAP14 SWAP9 SWAP7 SWAP5 PUSH2 0x1013 SWAP11 SWAP9 SWAP7 CALLDATASIZE SWAP2 PUSH2 0xAEC JUMP JUMPDEST PUSH2 0x13C1 JUMP JUMPDEST POP DUP3 DUP1 DUP3 MLOAD DUP4 ADD ADD SWAP2 ADD PUSH2 0xBD5 JUMP JUMPDEST SWAP4 SWAP1 PUSH2 0x101A PUSH1 0x1 PUSH1 0x1 PUSH1 0xA0 SHL SUB DUP1 SWAP7 AND SWAP15 DUP16 SWAP4 EQ SWAP3 DUP10 MLOAD DUP7 DUP2 ADD SWAP1 PUSH2 0xFF4 DUP2 PUSH2 0xFE8 DUP10 DUP6 PUSH2 0xCAA JUMP JUMPDEST SUB DUP12 DUP2 ADD DUP4 MSTORE DUP3 PUSH2 0x880 JUMP JUMPDEST MLOAD SWAP1 KECCAK256 SWAP12 DUP13 SWAP2 PUSH1 0x1 PUSH1 0x1 PUSH1 0xA0 SHL SUB AND PUSH1 0x0 MSTORE PUSH1 0x0 PUSH1 0x20 MSTORE PUSH1 0x40 PUSH1 0x0 KECCAK256 SWAP1 JUMP JUMPDEST SLOAD EQ PUSH2 0xCFF JUMP JUMPDEST PUSH2 0x102E DUP10 PUSH1 0x0 MSTORE PUSH1 0x2 PUSH1 0x20 MSTORE PUSH1 0x40 PUSH1 0x0 KECCAK256 SWAP1 JUMP JUMPDEST SLOAD SWAP6 DUP7 ISZERO ISZERO DUP1 PUSH2 0x1263 JUMPI JUMPDEST ISZERO PUSH2 0x10DC JUMPI POP POP POP POP POP POP PUSH2 0x10BB SWAP6 PUSH2 0x4D4 SWAP6 PUSH2 0x10D4 SWAP10 SWAP6 PUSH32 0xDEF2C5A081AB1DD3F896874500DE5F4045EFD102A452BCE3AF5123459F461F1B PUSH2 0xBD3 SWAP13 SWAP11 SWAP7 PUSH2 0x109B PUSH2 0x1096 PUSH2 0x4CD SWAP9 PUSH2 0x1090 PUSH2 0x1096 SWAP10 TIMESTAMP GT PUSH2 0xDA4 JUMP JUMPDEST SLOAD PUSH2 0xD4A JUMP JUMPDEST PUSH1 0x1 SSTORE JUMP JUMPDEST PUSH1 0x0 DUP4 DUP2 MSTORE PUSH1 0x2 PUSH1 0x20 MSTORE PUSH1 0x40 DUP2 KECCAK256 SSTORE MLOAD TIMESTAMP DUP2 MSTORE DUP1 PUSH1 0x20 DUP2 ADD SUB SWAP1 LOG3 PUSH2 0xD6D JUMP JUMPDEST PUSH1 0x1 PUSH1 0x1 PUSH1 0xA0 SHL SUB AND PUSH1 0x0 MSTORE PUSH1 0x0 PUSH1 0x20 MSTORE PUSH1 0x40 PUSH1 0x0 KECCAK256 SWAP1 JUMP JUMPDEST SLOAD ISZERO ISZERO PUSH2 0xEB0 JUMP JUMPDEST PUSH2 0x1130 SWAP4 SWAP6 SWAP15 POP DUP8 SWAP14 SWAP10 SWAP12 SWAP9 SWAP11 SWAP13 SWAP8 SWAP3 SWAP5 SWAP7 POP DUP12 SWAP1 DUP6 PUSH1 0x0 EQ PUSH2 0x1257 JUMPI DUP12 MLOAD DUP9 DUP2 ADD SWAP3 DUP4 MSTORE PUSH4 0x63616E63 PUSH1 0x20 DUP5 ADD MSTORE SWAP1 PUSH2 0x1122 SWAP1 DUP3 PUSH1 0x40 DUP6 ADD JUMPDEST SUB SWAP1 DUP2 ADD DUP4 MSTORE DUP3 PUSH2 0x880 JUMP JUMPDEST MLOAD SWAP1 KECCAK256 SWAP1 DUP3 SWAP15 SWAP4 SWAP3 SWAP2 PUSH2 0x182B JUMP JUMPDEST PUSH1 0x0 SWAP2 DUP3 SWAP2 AND SWAP12 JUMPDEST PUSH2 0x11F8 JUMPI JUMPDEST POP PUSH2 0x1152 SWAP2 SWAP3 SWAP4 SWAP5 SWAP6 SWAP7 SWAP8 SWAP9 SWAP10 SWAP11 SWAP12 POP PUSH2 0xCFF JUMP JUMPDEST ISZERO PUSH2 0x11A4 JUMPI POP POP POP POP POP PUSH32 0xF38FC5203EC5AC432B66DF0ED37402F7B1AFB377DDCE98E08C2BF696C7187405 SWAP1 PUSH1 0x0 PUSH2 0x1194 DUP5 PUSH1 0x0 MSTORE PUSH1 0x2 PUSH1 0x20 MSTORE PUSH1 0x40 PUSH1 0x0 KECCAK256 SWAP1 JUMP JUMPDEST SSTORE MLOAD TIMESTAMP DUP2 MSTORE DUP1 PUSH1 0x20 DUP2 ADD JUMPDEST SUB SWAP1 LOG4 JUMP JUMPDEST SWAP5 PUSH2 0x11D7 PUSH2 0x119F SWAP4 SWAP3 PUSH32 0x58D616DB4BBACCAAAD10B948D290B9DF7973A7B566F83A68E2E0E7F4E5C61CCD SWAP8 ADD MLOAD TIMESTAMP PUSH2 0xD7B JUMP JUMPDEST PUSH2 0x11EB DUP9 PUSH1 0x0 MSTORE PUSH1 0x2 PUSH1 0x20 MSTORE PUSH1 0x40 PUSH1 0x0 KECCAK256 SWAP1 JUMP JUMPDEST SSTORE MLOAD SWAP4 DUP5 SWAP4 TIMESTAMP SWAP1 DUP6 PUSH2 0xD88 JUMP JUMPDEST DUP4 MLOAD DUP1 MLOAD DUP3 LT ISZERO PUSH2 0x1251 JUMPI PUSH2 0x122E PUSH2 0x1222 PUSH2 0x1215 DUP16 SWAP4 DUP6 SWAP1 PUSH2 0xD59 JUMP JUMPDEST MLOAD PUSH1 0x1 PUSH1 0x1 PUSH1 0xA0 SHL SUB AND SWAP1 JUMP JUMPDEST PUSH1 0x1 PUSH1 0x1 PUSH1 0xA0 SHL SUB AND SWAP1 JUMP JUMPDEST EQ PUSH2 0x1243 JUMPI PUSH2 0x123D DUP14 SWAP2 PUSH2 0xD4A JUMP JUMPDEST SWAP1 PUSH2 0x1138 JUMP JUMPDEST POP SWAP10 SWAP11 DUP12 SWAP11 POP PUSH2 0x1152 PUSH2 0x113D JUMP JUMPDEST POP PUSH2 0x113D JUMP JUMPDEST POP SWAP1 DUP3 SWAP15 SWAP4 SWAP3 SWAP2 PUSH2 0x182B JUMP JUMPDEST POP DUP3 ISZERO PUSH2 0x1039 JUMP JUMPDEST PUSH2 0x4D4 SWAP7 POP PUSH2 0x10BB SWAP8 SWAP9 SWAP5 POP PUSH2 0x4CD SWAP4 POP PUSH2 0x1096 SWAP3 POP SWAP5 PUSH2 0xBD3 SWAP11 PUSH2 0x1299 PUSH2 0x129F SWAP4 PUSH2 0x10D4 SWAP13 SWAP9 CALLDATASIZE SWAP2 PUSH2 0xAEC JUMP JUMPDEST SWAP1 PUSH2 0x182B JUMP JUMPDEST SWAP7 PUSH2 0x12C8 PUSH2 0x12C0 DUP10 PUSH1 0x1 PUSH1 0x1 PUSH1 0xA0 SHL SUB AND PUSH1 0x0 MSTORE PUSH1 0x0 PUSH1 0x20 MSTORE PUSH1 0x40 PUSH1 0x0 KECCAK256 SWAP1 JUMP JUMPDEST SLOAD ISZERO ISZERO PUSH2 0xB23 JUMP JUMPDEST PUSH2 0xD6D JUMP JUMPDEST POP PUSH1 0xFE DUP5 EQ PUSH2 0xF89 JUMP JUMPDEST SWAP2 SWAP1 DUP2 LT ISZERO PUSH2 0xAE7 JUMPI PUSH1 0x5 SHL DUP2 ADD CALLDATALOAD SWAP1 PUSH1 0x3E NOT DUP2 CALLDATASIZE SUB ADD DUP3 SLT ISZERO PUSH2 0x125 JUMPI ADD SWAP1 JUMP JUMPDEST DUP1 MLOAD PUSH1 0x0 SWAP2 DUP3 JUMPDEST DUP3 DUP2 LT PUSH2 0x130D JUMPI POP POP POP POP JUMP JUMPDEST PUSH2 0x1317 DUP2 DUP4 PUSH2 0xD59 JUMP JUMPDEST MLOAD DUP5 DUP1 PUSH1 0x1 PUSH1 0x1 PUSH1 0xA0 SHL SUB DUP4 MLOAD AND PUSH1 0x20 SWAP1 DUP2 DUP6 ADD MLOAD PUSH1 0x40 DUP1 SWAP7 ADD MLOAD SWAP3 DUP4 MLOAD SWAP4 ADD SWAP2 GAS CALL ISZERO PUSH2 0x134E JUMPI POP PUSH2 0x1349 SWAP1 PUSH2 0xD4A JUMP JUMPDEST PUSH2 0x1300 JUMP JUMPDEST MLOAD RETURNDATASIZE SWAP1 DUP2 DUP7 DUP3 RETURNDATACOPY REVERT JUMPDEST PUSH1 0x0 SWAP1 PUSH2 0x1299 PUSH2 0x1371 SWAP4 PUSH1 0x1 PUSH1 0x1 PUSH1 0xA0 SHL SUB SWAP6 CALLDATASIZE SWAP2 PUSH2 0xAEC JUMP JUMPDEST AND PUSH1 0x0 MSTORE PUSH1 0x0 PUSH1 0x20 MSTORE PUSH1 0x40 PUSH1 0x0 KECCAK256 SLOAD ISZERO ISZERO PUSH1 0x0 EQ PUSH2 0x1394 JUMPI PUSH4 0xB135D3F PUSH1 0xE1 SHL SWAP1 JUMP JUMPDEST PUSH1 0x1 PUSH1 0x1 PUSH1 0xE0 SHL SUB NOT SWAP1 JUMP JUMPDEST DUP1 MLOAD PUSH1 0x40 LT ISZERO PUSH2 0xAE7 JUMPI PUSH1 0x60 ADD SWAP1 JUMP JUMPDEST SWAP1 DUP2 MLOAD DUP2 LT ISZERO PUSH2 0xAE7 JUMPI ADD PUSH1 0x20 ADD SWAP1 JUMP JUMPDEST SWAP1 PUSH1 0x0 NOT SWAP2 PUSH2 0x13D3 DUP4 DUP3 MLOAD ADD DUP3 PUSH2 0x13B0 JUMP JUMPDEST MLOAD PUSH1 0xF8 SHR SWAP3 DUP2 MLOAD SWAP1 DUP2 ADD SWAP1 DUP2 GT PUSH2 0xAA0 JUMPI PUSH2 0x13EE SWAP1 DUP3 PUSH2 0x1446 JUMP JUMPDEST SWAP2 SWAP1 JUMP JUMPDEST PUSH1 0x20 DUP2 MLOAD GT ISZERO PUSH2 0x1402 JUMPI PUSH1 0x20 SWAP1 MSTORE JUMP JUMPDEST PUSH1 0x64 PUSH1 0x40 MLOAD PUSH3 0x461BCD PUSH1 0xE5 SHL DUP2 MSTORE PUSH1 0x20 PUSH1 0x4 DUP3 ADD MSTORE PUSH1 0x18 PUSH1 0x24 DUP3 ADD MSTORE PUSH32 0x42797465734C69623A206F6E6C7920736872696E6B696E670000000000000000 PUSH1 0x44 DUP3 ADD MSTORE REVERT JUMPDEST DUP2 DUP2 MLOAD GT ISZERO PUSH2 0x1402 JUMPI MSTORE JUMP JUMPDEST ISZERO PUSH2 0x1459 JUMPI JUMP JUMPDEST PUSH1 0x64 PUSH1 0x40 MLOAD PUSH3 0x461BCD PUSH1 0xE5 SHL DUP2 MSTORE PUSH1 0x20 PUSH1 0x4 DUP3 ADD MSTORE PUSH1 0x9 PUSH1 0x24 DUP3 ADD MSTORE PUSH32 0x53565F5349474C454E0000000000000000000000000000000000000000000000 PUSH1 0x44 DUP3 ADD MSTORE REVERT JUMPDEST PUSH1 0x7 GT ISZERO PUSH2 0x14A7 JUMPI JUMP JUMPDEST PUSH4 0x4E487B71 PUSH1 0xE0 SHL PUSH1 0x0 MSTORE PUSH1 0x21 PUSH1 0x4 MSTORE PUSH1 0x24 PUSH1 0x0 REVERT JUMPDEST ISZERO PUSH2 0x14C4 JUMPI JUMP JUMPDEST PUSH1 0x64 PUSH1 0x40 MLOAD PUSH3 0x461BCD PUSH1 0xE5 SHL DUP2 MSTORE PUSH1 0x20 PUSH1 0x4 DUP3 ADD MSTORE PUSH1 0xA PUSH1 0x24 DUP3 ADD MSTORE PUSH32 0x53565F5349474D4F444500000000000000000000000000000000000000000000 PUSH1 0x44 DUP3 ADD MSTORE REVERT JUMPDEST ISZERO PUSH2 0x150F JUMPI JUMP JUMPDEST PUSH1 0x64 PUSH1 0x40 MLOAD PUSH3 0x461BCD PUSH1 0xE5 SHL DUP2 MSTORE PUSH1 0x20 PUSH1 0x4 DUP3 ADD MSTORE PUSH1 0xF PUSH1 0x24 DUP3 ADD MSTORE PUSH32 0x53565F53504F4F465F4F524947494E0000000000000000000000000000000000 PUSH1 0x44 DUP3 ADD MSTORE REVERT JUMPDEST ISZERO PUSH2 0x155A JUMPI JUMP JUMPDEST PUSH1 0x64 PUSH1 0x40 MLOAD PUSH3 0x461BCD PUSH1 0xE5 SHL DUP2 MSTORE PUSH1 0x20 PUSH1 0x4 DUP3 ADD MSTORE PUSH1 0xC PUSH1 0x24 DUP3 ADD MSTORE PUSH32 0x53565F53504F4F465F4C454E0000000000000000000000000000000000000000 PUSH1 0x44 DUP3 ADD MSTORE REVERT JUMPDEST PUSH1 0x40 MLOAD RETURNDATASIZE PUSH1 0x0 DUP3 RETURNDATACOPY RETURNDATASIZE SWAP1 REVERT JUMPDEST ISZERO PUSH2 0x125 JUMPI JUMP JUMPDEST SWAP1 DUP2 PUSH1 0x20 SWAP2 SUB SLT PUSH2 0x125 JUMPI MLOAD PUSH2 0x983 DUP2 PUSH2 0x1CB JUMP JUMPDEST ISZERO PUSH2 0x15CD JUMPI JUMP JUMPDEST PUSH1 0x64 PUSH1 0x40 MLOAD PUSH3 0x461BCD PUSH1 0xE5 SHL DUP2 MSTORE PUSH1 0x20 PUSH1 0x4 DUP3 ADD MSTORE PUSH1 0xD PUSH1 0x24 DUP3 ADD MSTORE PUSH32 0x53565F4C454E5F57414C4C455400000000000000000000000000000000000000 PUSH1 0x44 DUP3 ADD MSTORE REVERT JUMPDEST SWAP1 DUP2 PUSH1 0x20 SWAP2 SUB SLT PUSH2 0x125 JUMPI MLOAD PUSH2 0x983 DUP2 PUSH2 0x113 JUMP JUMPDEST PUSH1 0x40 SWAP1 PUSH2 0x983 SWAP4 SWAP3 DUP2 MSTORE DUP2 PUSH1 0x20 DUP3 ADD MSTORE ADD SWAP1 PUSH2 0x932 JUMP JUMPDEST ISZERO PUSH2 0x1644 JUMPI JUMP JUMPDEST PUSH1 0x64 PUSH1 0x40 MLOAD PUSH3 0x461BCD PUSH1 0xE5 SHL DUP2 MSTORE PUSH1 0x20 PUSH1 0x4 DUP3 ADD MSTORE PUSH1 0x11 PUSH1 0x24 DUP3 ADD MSTORE PUSH32 0x53565F57414C4C45545F494E56414C4944000000000000000000000000000000 PUSH1 0x44 DUP3 ADD MSTORE REVERT JUMPDEST ISZERO PUSH2 0x168F JUMPI JUMP JUMPDEST PUSH1 0x64 PUSH1 0x40 MLOAD PUSH3 0x461BCD PUSH1 0xE5 SHL DUP2 MSTORE PUSH1 0x20 PUSH1 0x4 DUP3 ADD MSTORE PUSH1 0xB PUSH1 0x24 DUP3 ADD MSTORE PUSH32 0x53565F5A45524F5F534947000000000000000000000000000000000000000000 PUSH1 0x44 DUP3 ADD MSTORE REVERT JUMPDEST SWAP1 PUSH1 0x20 SWAP1 DUP2 DUP4 DUP3 SUB SLT PUSH2 0x125 JUMPI DUP3 MLOAD PUSH8 0xFFFFFFFFFFFFFFFF SWAP4 DUP5 DUP3 GT PUSH2 0x125 JUMPI ADD DUP2 PUSH1 0x1F DUP3 ADD SLT ISZERO PUSH2 0x125 JUMPI DUP1 MLOAD PUSH2 0x170A DUP2 PUSH2 0xB6E JUMP JUMPDEST SWAP5 PUSH2 0x1718 PUSH1 0x40 MLOAD SWAP7 DUP8 PUSH2 0x880 JUMP JUMPDEST DUP2 DUP7 MSTORE DUP5 DUP1 DUP8 ADD SWAP3 PUSH1 0x5 SHL DUP5 ADD ADD SWAP4 DUP1 DUP6 GT PUSH2 0x125 JUMPI DUP6 DUP5 ADD SWAP3 JUMPDEST DUP6 DUP5 LT PUSH2 0x1744 JUMPI POP POP POP POP POP POP POP SWAP1 JUMP JUMPDEST DUP4 MLOAD DUP4 DUP2 GT PUSH2 0x125 JUMPI DUP8 SWAP2 PUSH2 0x175E DUP5 DUP5 DUP1 SWAP5 DUP11 ADD ADD PUSH2 0xB86 JUMP JUMPDEST DUP2 MSTORE ADD SWAP4 ADD SWAP3 PUSH2 0x1733 JUMP JUMPDEST SWAP2 SWAP1 DUP3 PUSH1 0x80 SWAP2 SUB SLT PUSH2 0x125 JUMPI DUP2 MLOAD SWAP2 PUSH1 0x20 DUP2 ADD MLOAD SWAP2 PUSH1 0x60 PUSH1 0x40 DUP4 ADD MLOAD SWAP3 ADD MLOAD PUSH1 0xFF DUP2 AND DUP2 SUB PUSH2 0x125 JUMPI SWAP1 JUMP JUMPDEST ISZERO PUSH2 0x179C JUMPI JUMP JUMPDEST PUSH1 0x64 PUSH1 0x40 MLOAD PUSH3 0x461BCD PUSH1 0xE5 SHL DUP2 MSTORE PUSH1 0x20 PUSH1 0x4 DUP3 ADD MSTORE PUSH1 0x11 PUSH1 0x24 DUP3 ADD MSTORE PUSH32 0x53565F5343484E4F52525F4641494C4544000000000000000000000000000000 PUSH1 0x44 DUP3 ADD MSTORE REVERT JUMPDEST ISZERO PUSH2 0x17E7 JUMPI JUMP JUMPDEST PUSH1 0x64 PUSH1 0x40 MLOAD PUSH3 0x461BCD PUSH1 0xE5 SHL DUP2 MSTORE PUSH1 0x20 PUSH1 0x4 DUP3 ADD MSTORE PUSH1 0x6 PUSH1 0x24 DUP3 ADD MSTORE PUSH32 0x53565F4C454E0000000000000000000000000000000000000000000000000000 PUSH1 0x44 DUP3 ADD MSTORE REVERT JUMPDEST SWAP1 SWAP3 SWAP2 PUSH1 0x0 SWAP2 PUSH2 0x183D DUP6 MLOAD ISZERO ISZERO PUSH2 0x1452 JUMP JUMPDEST PUSH1 0xFF PUSH2 0x187A PUSH2 0xF76 PUSH2 0x1854 PUSH1 0x0 NOT DUP10 MLOAD ADD DUP10 PUSH2 0x13B0 JUMP JUMPDEST MLOAD PUSH32 0xFF00000000000000000000000000000000000000000000000000000000000000 AND SWAP1 JUMP JUMPDEST AND SWAP2 PUSH2 0x1888 PUSH1 0x6 DUP5 LT PUSH2 0x14BD JUMP JUMPDEST PUSH2 0x1891 DUP4 PUSH2 0x149D JUMP JUMPDEST PUSH2 0x189A DUP4 PUSH2 0x149D JUMP JUMPDEST DUP3 ISZERO DUP1 ISZERO PUSH2 0x1DE9 JUMPI JUMPDEST ISZERO PUSH2 0x19A0 JUMPI POP SWAP1 DUP5 DUP4 SWAP5 SWAP6 SWAP3 PUSH2 0x18BF PUSH1 0x42 PUSH1 0x20 SWAP7 SWAP6 MLOAD EQ PUSH2 0x17E0 JUMP JUMPDEST PUSH2 0x18C8 DUP3 PUSH2 0x1DFC JUMP JUMPDEST SWAP2 PUSH1 0x1 PUSH2 0x18E3 PUSH2 0xF76 PUSH2 0x1854 PUSH2 0x18DD DUP6 PUSH2 0x1E50 JUMP JUMPDEST SWAP5 PUSH2 0x13A0 JUMP JUMPDEST SWAP5 PUSH2 0x18ED DUP2 PUSH2 0x149D JUMP JUMPDEST EQ PUSH2 0x1946 JUMPI JUMPDEST PUSH2 0x191E SWAP2 SWAP3 PUSH1 0x40 MLOAD SWAP5 DUP6 SWAP5 DUP6 SWAP1 SWAP5 SWAP4 SWAP3 PUSH1 0xFF PUSH1 0x60 SWAP4 PUSH1 0x80 DUP5 ADD SWAP8 DUP5 MSTORE AND PUSH1 0x20 DUP4 ADD MSTORE PUSH1 0x40 DUP3 ADD MSTORE ADD MSTORE JUMP JUMPDEST DUP4 DUP1 MSTORE SUB SWAP1 PUSH1 0x1 GAS STATICCALL ISZERO PUSH2 0x1941 JUMPI MLOAD PUSH2 0x983 PUSH1 0x1 PUSH1 0x1 PUSH1 0xA0 SHL SUB DUP3 AND ISZERO ISZERO PUSH2 0x1688 JUMP JUMPDEST PUSH2 0x159E JUMP JUMPDEST PUSH2 0x191E SWAP2 PUSH1 0x40 MLOAD PUSH2 0x1996 DUP2 PUSH2 0x1988 DUP11 DUP3 ADD SWAP5 DUP6 PUSH1 0x3C SWAP2 PUSH32 0x19457468657265756D205369676E6564204D6573736167653A0A333200000000 DUP3 MSTORE PUSH1 0x1C DUP3 ADD MSTORE ADD SWAP1 JUMP JUMPDEST SUB PUSH1 0x1F NOT DUP2 ADD DUP4 MSTORE DUP3 PUSH2 0x880 JUMP JUMPDEST MLOAD SWAP1 KECCAK256 SWAP2 POP PUSH2 0x18F3 JUMP JUMPDEST SWAP1 SWAP3 SWAP2 PUSH2 0x19AC DUP2 PUSH2 0x149D JUMP JUMPDEST PUSH1 0x4 DUP2 SUB PUSH2 0x1B4B JUMPI POP POP PUSH2 0x1A4A DUP2 PUSH1 0x20 PUSH2 0x1A1A SWAP4 PUSH2 0x19E9 DUP9 PUSH2 0x19DB PUSH2 0x19D5 PUSH2 0x1A23 SWAP11 SWAP12 MLOAD PUSH2 0xA91 JUMP JUMPDEST DUP3 PUSH2 0x1446 JUMP JUMPDEST DUP4 DUP1 DUP3 MLOAD DUP4 ADD ADD SWAP2 ADD PUSH2 0x1769 JUMP JUMPDEST SWAP7 SWAP1 SWAP3 DUP3 SWAP11 DUP2 SWAP10 DUP10 SWAP6 DUP4 PUSH2 0x1A13 PUSH17 0x14551231950B75FC4402DA1732FC9BEBE NOT DUP1 SWAP7 DUP2 SWAP5 MULMOD PUSH2 0xAA5 JUMP JUMPDEST SWAP7 MULMOD PUSH2 0xAA5 JUMP JUMPDEST SWAP2 DUP5 EQ ISZERO PUSH2 0x15AA JUMP JUMPDEST DUP9 PUSH1 0x40 MLOAD SWAP5 DUP6 SWAP5 DUP6 SWAP1 SWAP5 SWAP4 SWAP3 PUSH1 0xFF PUSH1 0x60 SWAP4 PUSH1 0x80 DUP5 ADD SWAP8 DUP5 MSTORE AND PUSH1 0x20 DUP4 ADD MSTORE PUSH1 0x40 DUP3 ADD MSTORE ADD MSTORE JUMP JUMPDEST DUP4 DUP1 MSTORE SUB SWAP1 PUSH1 0x1 GAS STATICCALL ISZERO PUSH2 0x1941 JUMPI PUSH2 0x983 SWAP5 PUSH2 0x1222 SWAP5 DUP5 SWAP4 PUSH2 0x1ADF PUSH2 0x1AFC SWAP5 MLOAD SWAP3 PUSH2 0x1A7F PUSH1 0x1 PUSH1 0x1 PUSH1 0xA0 SHL SUB DUP6 AND ISZERO ISZERO PUSH2 0x1688 JUMP JUMPDEST PUSH1 0x40 MLOAD SWAP7 DUP8 SWAP4 PUSH1 0x20 DUP6 ADD SWAP6 DUP7 SWAP3 SWAP1 PUSH1 0x55 SWAP5 SWAP3 PUSH32 0xFF00000000000000000000000000000000000000000000000000000000000000 SWAP2 PUSH12 0xFFFFFFFFFFFFFFFFFFFFFFFF NOT SWAP1 PUSH1 0x60 SHL AND DUP6 MSTORE PUSH1 0xF8 SHL AND PUSH1 0x14 DUP5 ADD MSTORE PUSH1 0x15 DUP4 ADD MSTORE PUSH1 0x35 DUP3 ADD MSTORE ADD SWAP1 JUMP JUMPDEST SUB SWAP4 PUSH2 0x1AF3 PUSH1 0x1F NOT SWAP6 DUP7 DUP2 ADD DUP4 MSTORE DUP3 PUSH2 0x880 JUMP JUMPDEST MLOAD SWAP1 KECCAK256 EQ PUSH2 0x1795 JUMP JUMPDEST PUSH2 0x1B3C PUSH1 0x40 MLOAD SWAP2 DUP3 PUSH2 0x1116 PUSH1 0x20 DUP3 ADD SWAP6 DUP7 PUSH1 0x27 SWAP2 PUSH32 0x5343484E4F525200000000000000000000000000000000000000000000000000 DUP3 MSTORE PUSH1 0x7 DUP3 ADD MSTORE ADD SWAP1 JUMP JUMPDEST MLOAD SWAP1 KECCAK256 PUSH1 0x1 PUSH1 0x1 PUSH1 0xA0 SHL SUB AND SWAP1 JUMP JUMPDEST PUSH2 0x1B57 DUP2 SWAP7 SWAP5 SWAP7 PUSH2 0x149D JUMP JUMPDEST PUSH1 0x5 DUP2 SUB PUSH2 0x1C15 JUMPI POP POP PUSH2 0x1B74 PUSH2 0x1B6E DUP4 MLOAD PUSH2 0xA91 JUMP JUMPDEST DUP4 PUSH2 0x1446 JUMP JUMPDEST PUSH2 0x1B88 PUSH1 0x20 SWAP3 DUP4 DUP1 DUP3 MLOAD DUP4 ADD ADD SWAP2 ADD PUSH2 0x16D3 JUMP JUMPDEST SWAP4 DUP2 SWAP5 DUP3 SWAP6 JUMPDEST DUP2 MLOAD DUP8 EQ PUSH2 0x1BFA JUMPI PUSH2 0x1BAB DUP5 PUSH2 0x1BA4 DUP10 DUP6 PUSH2 0xD59 JUMP JUMPDEST MLOAD DUP6 PUSH2 0x182B JUMP JUMPDEST PUSH2 0x1222 PUSH2 0x1BF4 SWAP3 PUSH2 0x1988 PUSH2 0x1B3C PUSH2 0x1BEE SWAP5 PUSH1 0x40 MLOAD SWAP3 DUP4 SWAP2 DUP13 DUP4 ADD SWAP6 DUP7 SWAP1 PUSH1 0x28 SWAP3 PUSH12 0xFFFFFFFFFFFFFFFFFFFFFFFF NOT DUP1 SWAP3 PUSH1 0x60 SHL AND DUP4 MSTORE PUSH1 0x60 SHL AND PUSH1 0x14 DUP3 ADD MSTORE ADD SWAP1 JUMP JUMPDEST SWAP7 PUSH2 0xD4A JUMP JUMPDEST SWAP6 PUSH2 0x1B8E JUMP JUMPDEST SWAP5 SWAP6 POP POP POP POP POP PUSH2 0x983 PUSH1 0x1 PUSH1 0x1 PUSH1 0xA0 SHL SUB DUP3 AND ISZERO ISZERO PUSH2 0x1688 JUMP JUMPDEST PUSH2 0x1C23 DUP2 SWAP7 SWAP4 SWAP5 SWAP6 SWAP7 PUSH2 0x149D JUMP JUMPDEST PUSH1 0x2 DUP2 SUB PUSH2 0x1CE8 JUMPI POP POP PUSH2 0x1C88 SWAP2 PUSH2 0x1C3E PUSH1 0x21 DUP6 MLOAD GT PUSH2 0x15C6 JUMP JUMPDEST PUSH1 0x20 PUSH1 0x1 PUSH1 0x1 PUSH1 0xA0 SHL SUB DUP2 NOT DUP7 MLOAD ADD PUSH2 0x1C6A PUSH2 0x1C63 PUSH2 0x1222 PUSH2 0x1222 PUSH2 0x1222 DUP6 DUP13 PUSH2 0x1E60 JUMP JUMPDEST SWAP2 DUP9 PUSH2 0x1446 JUMP JUMPDEST AND SWAP5 PUSH1 0x40 MLOAD DUP1 SWAP6 DUP2 SWAP3 PUSH4 0xB135D3F PUSH1 0xE1 SHL SWAP7 DUP8 DUP5 MSTORE PUSH1 0x4 DUP5 ADD PUSH2 0x1626 JUMP JUMPDEST SUB DUP2 DUP8 GAS STATICCALL DUP1 ISZERO PUSH2 0x1941 JUMPI PUSH2 0x1CAF SWAP4 PUSH1 0x1 PUSH1 0x1 PUSH1 0xE0 SHL SUB NOT SWAP3 SWAP2 PUSH2 0x1CBA JUMPI JUMPDEST POP AND EQ PUSH2 0x163D JUMP JUMPDEST PUSH2 0x983 DUP2 ISZERO ISZERO PUSH2 0x1688 JUMP JUMPDEST PUSH2 0x1CDB SWAP2 POP PUSH1 0x20 RETURNDATASIZE DUP2 GT PUSH2 0x1CE1 JUMPI JUMPDEST PUSH2 0x1CD3 DUP2 DUP4 PUSH2 0x880 JUMP JUMPDEST DUP2 ADD SWAP1 PUSH2 0x1611 JUMP JUMPDEST CODESIZE PUSH2 0x1CA7 JUMP JUMPDEST POP RETURNDATASIZE PUSH2 0x1CC9 JUMP JUMPDEST PUSH1 0x3 SWAP2 SWAP3 POP PUSH2 0x1CF6 DUP2 PUSH2 0x149D JUMP JUMPDEST EQ SWAP1 DUP2 PUSH2 0x1DE1 JUMPI JUMPDEST POP PUSH2 0x1D48 JUMPI PUSH1 0x40 MLOAD PUSH3 0x461BCD PUSH1 0xE5 SHL DUP2 MSTORE PUSH1 0x20 PUSH1 0x4 DUP3 ADD MSTORE PUSH1 0x7 PUSH1 0x24 DUP3 ADD MSTORE PUSH32 0x53565F5459504500000000000000000000000000000000000000000000000000 PUSH1 0x44 DUP3 ADD MSTORE PUSH1 0x64 SWAP1 REVERT JUMPDEST PUSH1 0x1 ORIGIN EQ DUP1 ISZERO PUSH2 0x1DD6 JUMPI JUMPDEST PUSH2 0x1D5C SWAP1 PUSH2 0x1508 JUMP JUMPDEST PUSH2 0x1D69 PUSH1 0x21 DUP4 MLOAD EQ PUSH2 0x1553 JUMP JUMPDEST PUSH2 0x1D72 DUP3 PUSH2 0x13F2 JUMP JUMPDEST PUSH1 0x20 DUP2 PUSH1 0x40 MLOAD DUP1 PUSH2 0x1D9A DUP2 SWAP1 PUSH1 0x0 PUSH1 0x60 PUSH1 0x80 DUP5 ADD SWAP4 DUP3 DUP2 MSTORE DUP3 PUSH1 0x20 DUP3 ADD MSTORE DUP3 PUSH1 0x40 DUP3 ADD MSTORE ADD MSTORE JUMP JUMPDEST DUP4 DUP1 MSTORE SUB SWAP1 PUSH1 0x1 GAS STATICCALL ISZERO PUSH2 0x1941 JUMPI PUSH2 0x983 SWAP2 PUSH2 0x1DC7 PUSH2 0x1B39 PUSH1 0x1 PUSH1 0x1 PUSH1 0xA0 SHL SUB PUSH2 0x1222 SWAP5 MLOAD AND EQ ISZERO PUSH2 0x15AA JUMP JUMPDEST PUSH1 0x20 DUP1 DUP3 MLOAD DUP4 ADD ADD SWAP2 ADD PUSH2 0x15B1 JUMP JUMPDEST POP ORIGIN PUSH2 0x1B39 EQ PUSH2 0x1D53 JUMP JUMPDEST SWAP1 POP CODESIZE PUSH2 0x1CFE JUMP JUMPDEST POP PUSH2 0x1DF3 DUP4 PUSH2 0x149D JUMP JUMPDEST PUSH1 0x1 DUP4 EQ PUSH2 0x18A3 JUMP JUMPDEST PUSH1 0x20 DUP2 MLOAD LT PUSH2 0x1E0C JUMPI PUSH1 0x20 ADD MLOAD SWAP1 JUMP JUMPDEST PUSH1 0x64 PUSH1 0x40 MLOAD PUSH3 0x461BCD PUSH1 0xE5 SHL DUP2 MSTORE PUSH1 0x20 PUSH1 0x4 DUP3 ADD MSTORE PUSH1 0x10 PUSH1 0x24 DUP3 ADD MSTORE PUSH32 0x42797465734C69623A206C656E67746800000000000000000000000000000000 PUSH1 0x44 DUP3 ADD MSTORE REVERT JUMPDEST PUSH1 0x40 DUP2 MLOAD LT PUSH2 0x1E0C JUMPI PUSH1 0x40 ADD MLOAD SWAP1 JUMP JUMPDEST SWAP1 PUSH1 0x20 DUP2 ADD DUP1 DUP3 GT PUSH2 0xAA0 JUMPI DUP3 MLOAD LT PUSH2 0x1E0C JUMPI ADD PUSH1 0x20 ADD MLOAD SWAP1 JUMP INVALID LOG2 PUSH5 0x6970667358 0x22 SLT KECCAK256 0xF7 0x2D MLOAD SWAP7 SHR CALLDATALOAD 0xD8 KECCAK256 0xC2 CALLCODE PUSH30 0xDB4EBECD368A156AFDE35CA5ADE81A0E9B3BD0FD5864736F6C6343000813 STOP CALLER "},"methodIdentifiers":{"execute((address,uint256,bytes)[],bytes)":"6171d1c9","executeBySelf((address,uint256,bytes)[])":"6769de82","executeBySender((address,uint256,bytes)[])":"abc5345e","executeMultiple(((address,uint256,bytes)[],bytes)[])":"a2ea6766","isValidSignature(bytes32,bytes)":"1626ba7e","nonce()":"affed0e0","onERC1155BatchReceived(address,address,uint256[],uint256[],bytes)":"bc197c81","onERC1155Received(address,address,uint256,uint256,bytes)":"f23a6e61","onERC721Received(address,address,uint256,bytes)":"150b7a02","privileges(address)":"c066a5b1","scheduledRecoveries(bytes32)":"160aa0ef","setAddrPrivilege(address,bytes32)":"0d5828d4","supportsInterface(bytes4)":"01ffc9a7","tryCatch(address,uint256,bytes)":"bf1cb383","tryCatchLimit(address,uint256,bytes,uint256)":"3628d042"}}}}}