{"contracts/AmbireAccountFactory.sol":{"AmbireAccountFactory":{"abi":[{"inputs":[{"internalType":"address","name":"allowed","type":"address"}],"stateMutability":"nonpayable","type":"constructor"},{"anonymous":false,"inputs":[{"indexed":false,"internalType":"address","name":"addr","type":"address"},{"indexed":false,"internalType":"uint256","name":"salt","type":"uint256"}],"name":"LogDeployed","type":"event"},{"inputs":[],"name":"allowedToDrain","outputs":[{"internalType":"address","name":"","type":"address"}],"stateMutability":"view","type":"function"},{"inputs":[{"internalType":"address","name":"to","type":"address"},{"internalType":"uint256","name":"value","type":"uint256"},{"internalType":"bytes","name":"data","type":"bytes"},{"internalType":"uint256","name":"gas","type":"uint256"}],"name":"call","outputs":[],"stateMutability":"nonpayable","type":"function"},{"inputs":[{"internalType":"bytes","name":"code","type":"bytes"},{"internalType":"uint256","name":"salt","type":"uint256"}],"name":"deploy","outputs":[],"stateMutability":"nonpayable","type":"function"},{"inputs":[{"internalType":"bytes","name":"code","type":"bytes"},{"internalType":"uint256","name":"salt","type":"uint256"},{"components":[{"internalType":"address","name":"to","type":"address"},{"internalType":"uint256","name":"value","type":"uint256"},{"internalType":"bytes","name":"data","type":"bytes"}],"internalType":"struct AmbireAccount.Transaction[]","name":"txns","type":"tuple[]"},{"internalType":"bytes","name":"signature","type":"bytes"}],"name":"deployAndExecute","outputs":[],"stateMutability":"nonpayable","type":"function"}],"evm":{"bytecode":{"linkReferences":{},"object":"60a03461007157601f61082b38819003918201601f19168301916001600160401b038311848410176100765780849260209460405283398101031261007157516001600160a01b03811681036100715760805260405161079e908161008d823960805181818161011401526101ea0152f35b600080fd5b634e487b7160e01b600052604160045260246000fdfe6080604052600436101561001257600080fd5b6000803560e01c9081631ce6236f146100fa5781631e86da2a14610055575080634e4a0c821461005057639c4ae2d01461004b57600080fd5b6102ad565b6101a5565b346100f75760803660031901126100f75767ffffffffffffffff6004358181116100f35761008790369060040161014d565b604492919235908282116100ef57366023830112156100ef578160040135908382116100eb573660248360051b850101116100eb576064359384116100eb576100e8946100da602495369060040161014d565b9590940191602435916103fe565b80f35b8580fd5b8480fd5b8280fd5b80fd5b346100f757806003193601126100f7576001600160a01b037f00000000000000000000000000000000000000000000000000000000000000001660805260206080f35b600091031261014857565b600080fd5b9181601f840112156101485782359167ffffffffffffffff8311610148576020838186019501011161014857565b600435906001600160a01b038216820361014857565b35906001600160a01b038216820361014857565b34610148576080366003190112610148576101be61017b565b60443567ffffffffffffffff8111610148576101de90369060040161014d565b91906001600160a01b037f0000000000000000000000000000000000000000000000000000000000000000163303610269576100e89183604051948593843782019060009485938385809552039160243590606435f13d15610261573d906102458261037e565b91610253604051938461035c565b82523d84602084013e610567565b606090610567565b606460405162461bcd60e51b815260206004820152600f60248201527f4f4e4c595f415554484f52495a454400000000000000000000000000000000006044820152fd5b346101485760403660031901126101485760043567ffffffffffffffff8111610148576102f16102e46102f692369060040161014d565b919060243592369161039a565b610664565b005b7f4e487b7100000000000000000000000000000000000000000000000000000000600052604160045260246000fd5b67ffffffffffffffff811161033b57604052565b6102f8565b6080810190811067ffffffffffffffff82111761033b57604052565b90601f8019910116810190811067ffffffffffffffff82111761033b57604052565b67ffffffffffffffff811161033b57601f01601f191660200190565b9291926103a68261037e565b916103b4604051938461035c565b829481845281830111610148578281602093846000960137010152565b908060209392818452848401376000828201840152601f01601f1916010190565b6040513d6000823e3d90fd5b959293949161041c906102f16001600160a01b03988994369161039a565b1693843b15610148579492919060409283519687957f6171d1c900000000000000000000000000000000000000000000000000000000875281604488018760048a015252606487019260648360051b8901019681946000925b8584106104cb5750505050505050836104a060009694829488946003198584030160248601526103d1565b03925af180156104c6576104b15750565b806104be6104c492610327565b8061013d565b565b6103f2565b919395995091939596976063198c82030183528935605e1983360301811215610148578201866104fa82610191565b168252602090818101358284015285810135601e1982360301811215610148570181813591019267ffffffffffffffff821161014857813603841361014857600193839261055192606090818b82015201916103d1565b9b019301940191949290938b9998979694610475565b1561056f5750565b6040519062461bcd60e51b82528160208060048301528251908160248401526000935b8285106105b5575050604492506000838284010152601f80199101168101030190fd5b8481018201518686016044015293810193859350610592565b156105d557565b606460405162461bcd60e51b815260206004820152601060248201527f4641494c45445f4445504c4f59494e47000000000000000000000000000000006044820152fd5b1561062057565b606460405162461bcd60e51b815260206004820152600c60248201527f4641494c45445f4d4154434800000000000000000000000000000000000000006044820152fd5b908151906106eb6106df6020850193842060405160208101917fff0000000000000000000000000000000000000000000000000000000000000083526bffffffffffffffffffffffff193060601b1660218301528560358301526055820152605581526106d081610340565b5190206001600160a01b031690565b6001600160a01b031690565b92833b156106fa575b50505090565b7fecef66cbb4d4c8dd18157def75d46290ddc298395ea46f7ff64321c1a912cbad92829151906000f56107456001600160a01b038083169061073d8215156105ce565b861614610619565b604080516001600160a01b039290921682526020820192909252a13880806106f456fea2646970667358221220c68fbe88ee7d91a6ed152a6b1b3132e8f98d8d4ff961cfd9b1545c61a3c983d564736f6c63430008130033","opcodes":"PUSH1 0xA0 CALLVALUE PUSH2 0x71 JUMPI PUSH1 0x1F PUSH2 0x82B CODESIZE DUP2 SWAP1 SUB SWAP2 DUP3 ADD PUSH1 0x1F NOT AND DUP4 ADD SWAP2 PUSH1 0x1 PUSH1 0x1 PUSH1 0x40 SHL SUB DUP4 GT DUP5 DUP5 LT OR PUSH2 0x76 JUMPI DUP1 DUP5 SWAP3 PUSH1 0x20 SWAP5 PUSH1 0x40 MSTORE DUP4 CODECOPY DUP2 ADD SUB SLT PUSH2 0x71 JUMPI MLOAD PUSH1 0x1 PUSH1 0x1 PUSH1 0xA0 SHL SUB DUP2 AND DUP2 SUB PUSH2 0x71 JUMPI PUSH1 0x80 MSTORE PUSH1 0x40 MLOAD PUSH2 0x79E SWAP1 DUP2 PUSH2 0x8D DUP3 CODECOPY PUSH1 0x80 MLOAD DUP2 DUP2 DUP2 PUSH2 0x114 ADD MSTORE PUSH2 0x1EA ADD MSTORE RETURN JUMPDEST PUSH1 0x0 DUP1 REVERT JUMPDEST PUSH4 0x4E487B71 PUSH1 0xE0 SHL PUSH1 0x0 MSTORE PUSH1 0x41 PUSH1 0x4 MSTORE PUSH1 0x24 PUSH1 0x0 REVERT INVALID PUSH1 0x80 PUSH1 0x40 MSTORE PUSH1 0x4 CALLDATASIZE LT ISZERO PUSH2 0x12 JUMPI PUSH1 0x0 DUP1 REVERT JUMPDEST PUSH1 0x0 DUP1 CALLDATALOAD PUSH1 0xE0 SHR SWAP1 DUP2 PUSH4 0x1CE6236F EQ PUSH2 0xFA JUMPI DUP2 PUSH4 0x1E86DA2A EQ PUSH2 0x55 JUMPI POP DUP1 PUSH4 0x4E4A0C82 EQ PUSH2 0x50 JUMPI PUSH4 0x9C4AE2D0 EQ PUSH2 0x4B JUMPI PUSH1 0x0 DUP1 REVERT JUMPDEST PUSH2 0x2AD JUMP JUMPDEST PUSH2 0x1A5 JUMP JUMPDEST CALLVALUE PUSH2 0xF7 JUMPI PUSH1 0x80 CALLDATASIZE PUSH1 0x3 NOT ADD SLT PUSH2 0xF7 JUMPI PUSH8 0xFFFFFFFFFFFFFFFF PUSH1 0x4 CALLDATALOAD DUP2 DUP2 GT PUSH2 0xF3 JUMPI PUSH2 0x87 SWAP1 CALLDATASIZE SWAP1 PUSH1 0x4 ADD PUSH2 0x14D JUMP JUMPDEST PUSH1 0x44 SWAP3 SWAP2 SWAP3 CALLDATALOAD SWAP1 DUP3 DUP3 GT PUSH2 0xEF JUMPI CALLDATASIZE PUSH1 0x23 DUP4 ADD SLT ISZERO PUSH2 0xEF JUMPI DUP2 PUSH1 0x4 ADD CALLDATALOAD SWAP1 DUP4 DUP3 GT PUSH2 0xEB JUMPI CALLDATASIZE PUSH1 0x24 DUP4 PUSH1 0x5 SHL DUP6 ADD ADD GT PUSH2 0xEB JUMPI PUSH1 0x64 CALLDATALOAD SWAP4 DUP5 GT PUSH2 0xEB JUMPI PUSH2 0xE8 SWAP5 PUSH2 0xDA PUSH1 0x24 SWAP6 CALLDATASIZE SWAP1 PUSH1 0x4 ADD PUSH2 0x14D JUMP JUMPDEST SWAP6 SWAP1 SWAP5 ADD SWAP2 PUSH1 0x24 CALLDATALOAD SWAP2 PUSH2 0x3FE JUMP JUMPDEST DUP1 RETURN JUMPDEST DUP6 DUP1 REVERT JUMPDEST DUP5 DUP1 REVERT JUMPDEST DUP3 DUP1 REVERT JUMPDEST DUP1 REVERT JUMPDEST CALLVALUE PUSH2 0xF7 JUMPI DUP1 PUSH1 0x3 NOT CALLDATASIZE ADD SLT PUSH2 0xF7 JUMPI PUSH1 0x1 PUSH1 0x1 PUSH1 0xA0 SHL SUB PUSH32 0x0 AND PUSH1 0x80 MSTORE PUSH1 0x20 PUSH1 0x80 RETURN JUMPDEST PUSH1 0x0 SWAP2 SUB SLT PUSH2 0x148 JUMPI JUMP JUMPDEST PUSH1 0x0 DUP1 REVERT JUMPDEST SWAP2 DUP2 PUSH1 0x1F DUP5 ADD SLT ISZERO PUSH2 0x148 JUMPI DUP3 CALLDATALOAD SWAP2 PUSH8 0xFFFFFFFFFFFFFFFF DUP4 GT PUSH2 0x148 JUMPI PUSH1 0x20 DUP4 DUP2 DUP7 ADD SWAP6 ADD ADD GT PUSH2 0x148 JUMPI JUMP JUMPDEST PUSH1 0x4 CALLDATALOAD SWAP1 PUSH1 0x1 PUSH1 0x1 PUSH1 0xA0 SHL SUB DUP3 AND DUP3 SUB PUSH2 0x148 JUMPI JUMP JUMPDEST CALLDATALOAD SWAP1 PUSH1 0x1 PUSH1 0x1 PUSH1 0xA0 SHL SUB DUP3 AND DUP3 SUB PUSH2 0x148 JUMPI JUMP JUMPDEST CALLVALUE PUSH2 0x148 JUMPI PUSH1 0x80 CALLDATASIZE PUSH1 0x3 NOT ADD SLT PUSH2 0x148 JUMPI PUSH2 0x1BE PUSH2 0x17B JUMP JUMPDEST PUSH1 0x44 CALLDATALOAD PUSH8 0xFFFFFFFFFFFFFFFF DUP2 GT PUSH2 0x148 JUMPI PUSH2 0x1DE SWAP1 CALLDATASIZE SWAP1 PUSH1 0x4 ADD PUSH2 0x14D JUMP JUMPDEST SWAP2 SWAP1 PUSH1 0x1 PUSH1 0x1 PUSH1 0xA0 SHL SUB PUSH32 0x0 AND CALLER SUB PUSH2 0x269 JUMPI PUSH2 0xE8 SWAP2 DUP4 PUSH1 0x40 MLOAD SWAP5 DUP6 SWAP4 DUP5 CALLDATACOPY DUP3 ADD SWAP1 PUSH1 0x0 SWAP5 DUP6 SWAP4 DUP4 DUP6 DUP1 SWAP6 MSTORE SUB SWAP2 PUSH1 0x24 CALLDATALOAD SWAP1 PUSH1 0x64 CALLDATALOAD CALL RETURNDATASIZE ISZERO PUSH2 0x261 JUMPI RETURNDATASIZE SWAP1 PUSH2 0x245 DUP3 PUSH2 0x37E JUMP JUMPDEST SWAP2 PUSH2 0x253 PUSH1 0x40 MLOAD SWAP4 DUP5 PUSH2 0x35C JUMP JUMPDEST DUP3 MSTORE RETURNDATASIZE DUP5 PUSH1 0x20 DUP5 ADD RETURNDATACOPY PUSH2 0x567 JUMP JUMPDEST PUSH1 0x60 SWAP1 PUSH2 0x567 JUMP JUMPDEST PUSH1 0x64 PUSH1 0x40 MLOAD PUSH3 0x461BCD PUSH1 0xE5 SHL DUP2 MSTORE PUSH1 0x20 PUSH1 0x4 DUP3 ADD MSTORE PUSH1 0xF PUSH1 0x24 DUP3 ADD MSTORE PUSH32 0x4F4E4C595F415554484F52495A45440000000000000000000000000000000000 PUSH1 0x44 DUP3 ADD MSTORE REVERT JUMPDEST CALLVALUE PUSH2 0x148 JUMPI PUSH1 0x40 CALLDATASIZE PUSH1 0x3 NOT ADD SLT PUSH2 0x148 JUMPI PUSH1 0x4 CALLDATALOAD PUSH8 0xFFFFFFFFFFFFFFFF DUP2 GT PUSH2 0x148 JUMPI PUSH2 0x2F1 PUSH2 0x2E4 PUSH2 0x2F6 SWAP3 CALLDATASIZE SWAP1 PUSH1 0x4 ADD PUSH2 0x14D JUMP JUMPDEST SWAP2 SWAP1 PUSH1 0x24 CALLDATALOAD SWAP3 CALLDATASIZE SWAP2 PUSH2 0x39A JUMP JUMPDEST PUSH2 0x664 JUMP JUMPDEST STOP JUMPDEST PUSH32 0x4E487B7100000000000000000000000000000000000000000000000000000000 PUSH1 0x0 MSTORE PUSH1 0x41 PUSH1 0x4 MSTORE PUSH1 0x24 PUSH1 0x0 REVERT JUMPDEST PUSH8 0xFFFFFFFFFFFFFFFF DUP2 GT PUSH2 0x33B JUMPI PUSH1 0x40 MSTORE JUMP JUMPDEST PUSH2 0x2F8 JUMP JUMPDEST PUSH1 0x80 DUP2 ADD SWAP1 DUP2 LT PUSH8 0xFFFFFFFFFFFFFFFF DUP3 GT OR PUSH2 0x33B JUMPI PUSH1 0x40 MSTORE JUMP JUMPDEST SWAP1 PUSH1 0x1F DUP1 NOT SWAP2 ADD AND DUP2 ADD SWAP1 DUP2 LT PUSH8 0xFFFFFFFFFFFFFFFF DUP3 GT OR PUSH2 0x33B JUMPI PUSH1 0x40 MSTORE JUMP JUMPDEST PUSH8 0xFFFFFFFFFFFFFFFF DUP2 GT PUSH2 0x33B JUMPI PUSH1 0x1F ADD PUSH1 0x1F NOT AND PUSH1 0x20 ADD SWAP1 JUMP JUMPDEST SWAP3 SWAP2 SWAP3 PUSH2 0x3A6 DUP3 PUSH2 0x37E JUMP JUMPDEST SWAP2 PUSH2 0x3B4 PUSH1 0x40 MLOAD SWAP4 DUP5 PUSH2 0x35C JUMP JUMPDEST DUP3 SWAP5 DUP2 DUP5 MSTORE DUP2 DUP4 ADD GT PUSH2 0x148 JUMPI DUP3 DUP2 PUSH1 0x20 SWAP4 DUP5 PUSH1 0x0 SWAP7 ADD CALLDATACOPY ADD ADD MSTORE JUMP JUMPDEST SWAP1 DUP1 PUSH1 0x20 SWAP4 SWAP3 DUP2 DUP5 MSTORE DUP5 DUP5 ADD CALLDATACOPY PUSH1 0x0 DUP3 DUP3 ADD DUP5 ADD MSTORE PUSH1 0x1F ADD PUSH1 0x1F NOT AND ADD ADD SWAP1 JUMP JUMPDEST PUSH1 0x40 MLOAD RETURNDATASIZE PUSH1 0x0 DUP3 RETURNDATACOPY RETURNDATASIZE SWAP1 REVERT JUMPDEST SWAP6 SWAP3 SWAP4 SWAP5 SWAP2 PUSH2 0x41C SWAP1 PUSH2 0x2F1 PUSH1 0x1 PUSH1 0x1 PUSH1 0xA0 SHL SUB SWAP9 DUP10 SWAP5 CALLDATASIZE SWAP2 PUSH2 0x39A JUMP JUMPDEST AND SWAP4 DUP5 EXTCODESIZE ISZERO PUSH2 0x148 JUMPI SWAP5 SWAP3 SWAP2 SWAP1 PUSH1 0x40 SWAP3 DUP4 MLOAD SWAP7 DUP8 SWAP6 PUSH32 0x6171D1C900000000000000000000000000000000000000000000000000000000 DUP8 MSTORE DUP2 PUSH1 0x44 DUP9 ADD DUP8 PUSH1 0x4 DUP11 ADD MSTORE MSTORE PUSH1 0x64 DUP8 ADD SWAP3 PUSH1 0x64 DUP4 PUSH1 0x5 SHL DUP10 ADD ADD SWAP7 DUP2 SWAP5 PUSH1 0x0 SWAP3 JUMPDEST DUP6 DUP5 LT PUSH2 0x4CB JUMPI POP POP POP POP POP POP POP DUP4 PUSH2 0x4A0 PUSH1 0x0 SWAP7 SWAP5 DUP3 SWAP5 DUP9 SWAP5 PUSH1 0x3 NOT DUP6 DUP5 SUB ADD PUSH1 0x24 DUP7 ADD MSTORE PUSH2 0x3D1 JUMP JUMPDEST SUB SWAP3 GAS CALL DUP1 ISZERO PUSH2 0x4C6 JUMPI PUSH2 0x4B1 JUMPI POP JUMP JUMPDEST DUP1 PUSH2 0x4BE PUSH2 0x4C4 SWAP3 PUSH2 0x327 JUMP JUMPDEST DUP1 PUSH2 0x13D JUMP JUMPDEST JUMP JUMPDEST PUSH2 0x3F2 JUMP JUMPDEST SWAP2 SWAP4 SWAP6 SWAP10 POP SWAP2 SWAP4 SWAP6 SWAP7 SWAP8 PUSH1 0x63 NOT DUP13 DUP3 SUB ADD DUP4 MSTORE DUP10 CALLDATALOAD PUSH1 0x5E NOT DUP4 CALLDATASIZE SUB ADD DUP2 SLT ISZERO PUSH2 0x148 JUMPI DUP3 ADD DUP7 PUSH2 0x4FA DUP3 PUSH2 0x191 JUMP JUMPDEST AND DUP3 MSTORE PUSH1 0x20 SWAP1 DUP2 DUP2 ADD CALLDATALOAD DUP3 DUP5 ADD MSTORE DUP6 DUP2 ADD CALLDATALOAD PUSH1 0x1E NOT DUP3 CALLDATASIZE SUB ADD DUP2 SLT ISZERO PUSH2 0x148 JUMPI ADD DUP2 DUP2 CALLDATALOAD SWAP2 ADD SWAP3 PUSH8 0xFFFFFFFFFFFFFFFF DUP3 GT PUSH2 0x148 JUMPI DUP2 CALLDATASIZE SUB DUP5 SGT PUSH2 0x148 JUMPI PUSH1 0x1 SWAP4 DUP4 SWAP3 PUSH2 0x551 SWAP3 PUSH1 0x60 SWAP1 DUP2 DUP12 DUP3 ADD MSTORE ADD SWAP2 PUSH2 0x3D1 JUMP JUMPDEST SWAP12 ADD SWAP4 ADD SWAP5 ADD SWAP2 SWAP5 SWAP3 SWAP1 SWAP4 DUP12 SWAP10 SWAP9 SWAP8 SWAP7 SWAP5 PUSH2 0x475 JUMP JUMPDEST ISZERO PUSH2 0x56F JUMPI POP JUMP JUMPDEST PUSH1 0x40 MLOAD SWAP1 PUSH3 0x461BCD PUSH1 0xE5 SHL DUP3 MSTORE DUP2 PUSH1 0x20 DUP1 PUSH1 0x4 DUP4 ADD MSTORE DUP3 MLOAD SWAP1 DUP2 PUSH1 0x24 DUP5 ADD MSTORE PUSH1 0x0 SWAP4 JUMPDEST DUP3 DUP6 LT PUSH2 0x5B5 JUMPI POP POP PUSH1 0x44 SWAP3 POP PUSH1 0x0 DUP4 DUP3 DUP5 ADD ADD MSTORE PUSH1 0x1F DUP1 NOT SWAP2 ADD AND DUP2 ADD SUB ADD SWAP1 REVERT JUMPDEST DUP5 DUP2 ADD DUP3 ADD MLOAD DUP7 DUP7 ADD PUSH1 0x44 ADD MSTORE SWAP4 DUP2 ADD SWAP4 DUP6 SWAP4 POP PUSH2 0x592 JUMP JUMPDEST ISZERO PUSH2 0x5D5 JUMPI JUMP JUMPDEST PUSH1 0x64 PUSH1 0x40 MLOAD PUSH3 0x461BCD PUSH1 0xE5 SHL DUP2 MSTORE PUSH1 0x20 PUSH1 0x4 DUP3 ADD MSTORE PUSH1 0x10 PUSH1 0x24 DUP3 ADD MSTORE PUSH32 0x4641494C45445F4445504C4F59494E4700000000000000000000000000000000 PUSH1 0x44 DUP3 ADD MSTORE REVERT JUMPDEST ISZERO PUSH2 0x620 JUMPI JUMP JUMPDEST PUSH1 0x64 PUSH1 0x40 MLOAD PUSH3 0x461BCD PUSH1 0xE5 SHL DUP2 MSTORE PUSH1 0x20 PUSH1 0x4 DUP3 ADD MSTORE PUSH1 0xC PUSH1 0x24 DUP3 ADD MSTORE PUSH32 0x4641494C45445F4D415443480000000000000000000000000000000000000000 PUSH1 0x44 DUP3 ADD MSTORE REVERT JUMPDEST SWAP1 DUP2 MLOAD SWAP1 PUSH2 0x6EB PUSH2 0x6DF PUSH1 0x20 DUP6 ADD SWAP4 DUP5 KECCAK256 PUSH1 0x40 MLOAD PUSH1 0x20 DUP2 ADD SWAP2 PUSH32 0xFF00000000000000000000000000000000000000000000000000000000000000 DUP4 MSTORE PUSH12 0xFFFFFFFFFFFFFFFFFFFFFFFF NOT ADDRESS PUSH1 0x60 SHL AND PUSH1 0x21 DUP4 ADD MSTORE DUP6 PUSH1 0x35 DUP4 ADD MSTORE PUSH1 0x55 DUP3 ADD MSTORE PUSH1 0x55 DUP2 MSTORE PUSH2 0x6D0 DUP2 PUSH2 0x340 JUMP JUMPDEST MLOAD SWAP1 KECCAK256 PUSH1 0x1 PUSH1 0x1 PUSH1 0xA0 SHL SUB AND SWAP1 JUMP JUMPDEST PUSH1 0x1 PUSH1 0x1 PUSH1 0xA0 SHL SUB AND SWAP1 JUMP JUMPDEST SWAP3 DUP4 EXTCODESIZE ISZERO PUSH2 0x6FA JUMPI JUMPDEST POP POP POP SWAP1 JUMP JUMPDEST PUSH32 0xECEF66CBB4D4C8DD18157DEF75D46290DDC298395EA46F7FF64321C1A912CBAD SWAP3 DUP3 SWAP2 MLOAD SWAP1 PUSH1 0x0 CREATE2 PUSH2 0x745 PUSH1 0x1 PUSH1 0x1 PUSH1 0xA0 SHL SUB DUP1 DUP4 AND SWAP1 PUSH2 0x73D DUP3 ISZERO ISZERO PUSH2 0x5CE JUMP JUMPDEST DUP7 AND EQ PUSH2 0x619 JUMP JUMPDEST PUSH1 0x40 DUP1 MLOAD PUSH1 0x1 PUSH1 0x1 PUSH1 0xA0 SHL SUB SWAP3 SWAP1 SWAP3 AND DUP3 MSTORE PUSH1 0x20 DUP3 ADD SWAP3 SWAP1 SWAP3 MSTORE LOG1 CODESIZE DUP1 DUP1 PUSH2 0x6F4 JUMP INVALID LOG2 PUSH5 0x6970667358 0x22 SLT KECCAK256 0xC6 DUP16 0xBE DUP9 0xEE PUSH30 0x91A6ED152A6B1B3132E8F98D8D4FF961CFD9B1545C61A3C983D564736F6C PUSH4 0x43000813 STOP CALLER "},"methodIdentifiers":{"allowedToDrain()":"1ce6236f","call(address,uint256,bytes,uint256)":"4e4a0c82","deploy(bytes,uint256)":"9c4ae2d0","deployAndExecute(bytes,uint256,(address,uint256,bytes)[],bytes)":"1e86da2a"}}}}}